:100000000C9479020C94C0020C94C0020C94C002AF
:100010000C94C0020C94C0020C94C0020C94C00258
:100020000C94C0020C94C0020C94AD210C9481225B
:100030000C94671D0C94C0020C94C0020C94C00276
:100040000C94C0020C94C0020C94C0020C94C00228
:100050000C94C0020C94BE1D0C94C0020C94C002FF
:100060000C94C0020C94C0020C94C0020C94C00208
:100070000C94C0020C94C0020C94C0020C94C002F8
:100080000C94C0020C94C0020C94C0020C94C002E8
:100090000C94C0020C94C0020C94C0020C94C002D8
:1000A0000C94C0020C94C0020C94C00229003A00C7
:1000B0003B003C003D003E003F004000410042004C
:1000C00043004400450046004700000035001E0084
:1000D0001F0020002100220023002400250026000C
:1000E00027002D002E002A004A004B002B00140090
:1000F0001A000800150017001C0018000C00120060
:1001000013002F00300031004D004E003900040074
:100110001600070009000A000B000D000E000F007A
:1001200033003400280049004C000000E1000000CA
:100130001D001B000600190005001100100036000C
:1001400037003800E500040052000000E000E30042
:10015000E20009000A000B002C000D000E00E60072
:1001600001516500E400500051004F0029003A00A1
:100170003B003C003D003E003F004000410042008B
:1001800043004400450046004700000035001E00C3
:100190001F0020002100220023002400250026004B
:1001A00027002D002E002A004A004B002B00C75CC0
:1001B000C65CC35C005C17001C0018000C00120039
:1001C00013002F00300031004D004E003900C95C93
:1001D000C85CC45CC55C0A000B000D000E000F007B
:1001E00033003400280049004C000000E10000000A
:1001F000CB5CCA5C0900090009000900090036004F
:1002000037003800E500040052000000E000E30081
:10021000E20009000A000B002C000D000E00E600B1
:1002200000006500E400500051004F001E0F050063
:10023000047F3F1F643214643214783C1E1E140A7B
:10024000052223252628292A2C2D2F303233353616
:10025000383A3B3D3E4042434547494A4C4E505157
:10026000535557595A5C5E6062646668696B6D6F7E
:1002700071737577797B7D7F81838587898A8C8E81
:1002800090929496989A9C9E9FA1A3A5A7A8AAAC89
:10029000AEAFB1B3B4B6B8B9BBBCBEBFC1C2C3C5C3
:1002A000C6C7C9CACBCCCDCED0D1D2D2D3D4D5D665
:1002B000D7D7D8D9D9DADADBDBDBDCDCDCDCDCDD98
:1002C000DDDDDDDCDCDCDCDCDBDBDBDADAD9D9D87C
:1002D000D7D7D6D5D4D3D2D2D1D0CECDCCCBCAC914
:1002E000C7C6C5C3C2C1BFBEBCBBB9B8B6B4B3B143
:1002F000AFAEACAAA8A7A5A3A19F9E9C9A989694DE
:1003000092908E8C8A89878583817F7D7B797775B2
:1003100073716F6D6B6968666462605E5C5A595791
:10032000555351504E4C4A4947454342403E3D3B50
:100330003A3836353332302F2D2C2A2928262523DA
:1003400022FFAA7F554000010101010101010101C5
:100350000202020202020202020303030303030376
:100360000304040404040404050505050506060643
:100370000606070707070708080808090909090A00
:100380000A0A0B0B0B0C0C0C0D0D0D0E0E0E0F0FA5
:100390000F10101111111212131314141515161633
:1003A0001717181819191A1A1B1B1C1D1D1E1E1FA2
:1003B0002020212222232424252626272829292AF1
:1003C0002B2C2D2D2E2F3031323233343536373819
:1003D000393A3B3C3D3E3F40414243444546474815
:1003E000494A4C4D4E4F50515354555658595A5BEB
:1003F0005D5E5F616264656668696B6C6D6F70728B
:10040000737577787A7B7D7E8082838587888A8CF6
:100410008E8F91939596989A9C9EA0A2A3A5A7A92A
:10042000ABADAFB1B3B5B7BABCBEC0C2C4C6C9CB21
:10043000CDCFD1D4D6D8DBDDDFE2E4E7E9EBEEF0D7
:10044000F3F5F8FAFDFF1A0374006B006C005F000F
:100450006B006500790062006F006100720064004B
:100460000000160341006C00650078002000420087
:1004700069006E006F0073000000040309040902A4
:100480002200010100A0FA0904000001030101009B
:100490000921110100012240000705810308000A1B
:1004A0001201100100000008341278560000010209
:1004B000000105010906A101050719E029E715005A
:1004C00025019508750181029501750881010507CF
:1004D000190029FF150026FF009506750881000503
:1004E000081901290595057501910295017503917A
:1004F00001C011241FBECFEFDAE0DEBFCDBF04B6CE
:1005000003FE27C08091C2029091C302A091C40251
:10051000B091C5028730904BA740B04BD1F41092F8
:10052000C2021092C3021092C4021092C50214BEFD
:1005300084B7877F84BF0FB6F894A8958091600038
:10054000886180936000109260000FBEE0E0F8E3E5
:10055000099511E0A0E0B1E0E0E9FBE402C00590FC
:100560000D92AC35B107D9F722E0ACE5B1E001C09E
:100570001D92A23CB207E1F70E94FB1E0C949E253F
:100580000C940000CF93DF93819A8998809A889881
:10059000A4E2B1E04AE251E061E070E08D91E82F21
:1005A000E295EF70F0E021A18F70EB0102C0CC0F5B
:1005B000DD1F8A95E2F7CE01922F982B91A392A18D
:1005C0008095892382A34A175B0741F7DF91CF917A
:1005D00008950E94C202A4E2B1E041E050E08D9192
:1005E000E82FE295EF70F0E021A18F70BA0102C010
:1005F000660F771F8A95E2F7CB01922F982B91A374
:1006000092A18095892382A371E0AA32B70739F7B6
:10061000AAE2B1E061E070E08D91E82FE295EF7021
:10062000F0E021A18F70AB0101C0440F8A95EAF779
:10063000842F8095282321A392A1982392A382A19D
:10064000842B82A381E0A033B80731F7EAE6F2E019
:10065000A6E7B2E086E792E0119211921D921D92F8
:100660008E179F07C9F786E00E9429070C94310472
:100670008F929F92AF92BF92CF92DF92EF92FF92B2
:100680000F931F93CF93DF93D0E0C0E010E080E0A2
:10069000EE24E394F12C26E7C22E22E0D22E30E0A5
:1006A00020E090E0AC01022E02C0559547950A94D7
:1006B000E2F740FF12C0F901EC5DFE4F4081E42FEC
:1006C000E295EF70F0E052A14F70B70101C0660FE4
:1006D0004A95EAF7452F462B42A32F5F3F4F26301E
:1006E000310501F7BC2E87E08C1708F464C0899AA5
:1006F0000E94FF06A7010C2E02C0440F551F0A944A
:10070000E2F7BA0160957095EAE6F2E08AE2882E97
:1007100081E0982E00E021913191D401AD904D01FE
:100720008A2D82958F7090E0DC0190968C9190E0FC
:10073000BA2DBF7002C095958795BA95E2F780FDF6
:100740003CC0C901842B952B2817390739F09F012C
:1007500022503109D9018D939C9301E0CE16DF061A
:10076000D1F60E94C2020E940107102B81E08B0D7E
:10077000CF30D105C1F4212F46E066E772E08AE66A
:1007800092E00E942A070E943704812FDF91CF91C7
:100790001F910F91FF90EF90DF90CF90BF90AF909F
:1007A0009F908F900895883020F0880F880F880FD1
:1007B0008873219674CF889A9BCFC901862397238B
:1007C000C3CF81E0089581E008950C94E303089578
:1007D0000C94E7031F93CF93DF9300D000D00F92C8
:1007E000CDB7DEB749835A836B833091D2018981BB
:1007F0009A8131111DC06623B9F02223A9F00E940D
:100800009A1A182F682F89819A810E94471A698144
:100810007A81812F0F900F900F900F900F90DF91A2
:10082000CF911F910C94C2040E94731A182FEFCF1E
:100830000E949A1A69817A81EDCFFC01262F4081AE
:1008400051816281738184810C94EA03CF93DF9399
:10085000EC0160E00E941D04BE01DF91CF910C9479
:10086000E8030E94C7060E94B3040C94EC060C94A3
:10087000EF0608950E94B1150E9439042FEF84E31A
:100880009CE0215080409040E1F700C000000C94B3
:10089000E21D0F931F93CF93DF938C0161E00E94C1
:1008A0001D04EC01B8010E94E5038823D9F1B801C9
:1008B000CE010E94EC0F8823A9F1B801CE010E945D
:1008C0003E10882379F1B801CE010E94611188237E
:1008D00049F1B801CE010E94870E882319F1F80171
:1008E0008281882361F0CB35FDE5DF0721F170F4CB
:1008F000C115ECE5DE07A1F0CF3DDC45C9F0C8012C
:10090000DF91CF911F910F910C94E103CC358DE5D0
:10091000D807A1F0CD35DD4591F70E94411BEFCFFF
:100920000E943A0480E0DF91CF911F910F910895CA
:100930000E94BA1CF7CF0E944A1BE1CF0E944D1BB8
:10094000DECF08950C94A10481E00895CF93C82FC1
:100950000E94A404882319F0C1FD03C05D9ACF91C1
:1009600008955D98FCCF559A5D9A0895CF93C82F4E
:100970000E94A2048C2FCF910C94A60490E080E0FA
:1009800008950895E72FF0E096E0899FE00DF11DAE
:10099000112484E0EE0FFF1F8A95E1F7E60FF11DA9
:1009A000EE0FFF1FE455FF4F859194910895FC01D0
:1009B000EE0FFF1FE45DFD4F859194910895CF9355
:1009C000DF930E94C2040E94D205EC01811521E54B
:1009D0009207D0F5811530E5930708F096C0811590
:1009E0009042F8F4C11581E0D807B8F4C03ED105B3
:1009F00088F4C03CD10508F07BC0C130D10569F056
:100A0000209759F0CE010497813A910530F0D0E05B
:100A1000C0E003C0C83ED105D0F7CE01DF91CF9131
:100A20000895C11590E4D90708F06CC0CE019F70FD
:100A3000C11520E3D20708F45EC0CE019927D3FF89
:100A40005EC0EC01D86CE9CF811535E5930700F560
:100A5000811544E5940708F08DC0C11583E5D807DA
:100A600008F074C0C11592E5D90708F46AC0CE0138
:100A70008370992721E030E002C0220F331F8A954E
:100A8000E2F7C695C69580E2C89FE001112455C0E3
:100A9000811529E59207A0F4811538E5930708F040
:100AA0006EC0811546E5940708F0B1CF0E94690633
:100AB000C82FD0E0DC2FCC27CC27DF71D062ADCFA0
:100AC000C1158AE5D80708F45FC0CE01905681159C
:100AD000904208F09CCF8D2F8F710E94690690E0A4
:100AE000982F882788279F719C012C2BE901E6CF3E
:100AF000CE01805C91090E94D704EC018ECFEC01FD
:100B0000D06C8BCFDF70D06A88CFE4E09695879564
:100B1000EA95E1F783702C2F26952695237040E205
:100B2000249F90011124382B8C2F8370C1E0D0E0DA
:100B300002C0CC0FDD1F8A95E2F7C22BD32BDC68F5
:100B40006CCFDC2FCC27C16FD06A67CFCE0183700A
:100B5000992721E030E002C0220F331F8A95E2F787
:100B6000C695C69590E2C99FE0011124C22BD32BF4
:100B7000DA6853CFD82FCC27C46FD06A4ECFD82F86
:100B8000CC27C06FD06A49CF8C2F8F700E94690626
:100B900034E0D695C7953A95E1F7CF709C2FEC01DC
:100BA000D0693BCF82389105B1F1B0F48133910522
:100BB00009F475C048F48932910509F469C08A3294
:100BC000910509F473C008958533910509F459C05E
:100BD0008933910501F10895833E9105A9F138F417
:100BE000803E9105F9F0823E910549F10895863ED7
:100BF0009105A9F1873E9105C9F1843E910519F54A
:100C00002091690221FF1FC08091680284FD14C0F9
:100C100087EE90E00895209168022370A1F080EEA5
:100C200090E008952091680220FD47C0309169024C
:100C300030FF09C024FF44C090E080E004C0209150
:100C4000680222FDF7CF08952091680222FD3BC083
:100C50003091690230FDE3CF24FFF5CFEDCF209135
:100C6000680223FFF0CF24FDE7CFD2CF20916802A6
:100C700023FD2CC03091690231FFEECF84EE90E06D
:100C800008952091680225FFDECF89E290E0089563
:100C90002091680225FFD7CF85E390E00895209149
:100CA000680226FFD0CF8AE290E008952091680282
:100CB00026FFC9CF81E390E0089589E390E008958D
:100CC00083EE90E0089582EE90E0089586EE90E045
:100CD00008959091680292FF06C0282F287128304D
:100CE000F9F4877F846093FF06C0282F287128318C
:100CF000F1F4877E84612091690220FF06C0382FBD
:100D000038713830D9F4877F816021FF06C0282FE1
:100D100028712831D1F4877E816194FD877E089502
:100D2000282F24712430F9F68B7F8860DCCF282FA0
:100D30002471243101F78B7E8861DDCF382F31712A
:100D4000313019F78E7F8860E0CF282F2171213153
:100D500021F78E7E8861E1CF0C940F1C0E9416074C
:100D60002FEF86E791E0215080409040E1F700C0EE
:100D700000000E94160780E00E94F10680FF04C078
:100D80000E94AC060C94E21D08950C94AE060E94DD
:100D9000151C811102C00E94BA1C0E94201C809365
:100DA0005C020E94281C90936902809368020E9452
:100DB000C5060E94241C682F70E090E080E00E942D
:100DC00049196091470270914802809149029091BF
:100DD0004A020C94831908950C94EB0608950C9420
:100DE000EE06E82FF0E0EE0FFF1FEA58FD4F80817E
:100DF00091810895089580EA8A95F1F7089500C0D9
:100E000008950C94FB060E94E902EAE6F2E0A6E7E8
:100E1000B2E0119211921D921D9282E0E637F8071E
:100E2000C1F786E00E9429070C943104CF938AE62B
:100E300092E00E943803C82F282F46E066E772E050
:100E40008AE692E00E942A070E9437048C2FCF91F5
:100E500008950895FF920F931F93CF93DF93F82E79
:100E6000092F162FD72FC42F222349F081E080931A
:100E700060010E94971D90935F0180935E018091B5
:100E800060018823A1F080915E0190915F010E9432
:100E9000AF1D069760F0EF2DF02FA12FBD2F90E032
:100EA00080E0D0E08C179D0744F010926001DF9144
:100EB000CF911F910F91FF900895219131912D9322
:100EC0003D930196EFCFEF92FF920F931F93CF9335
:100ED000DF93EB01E82FD11110C0442321F0F0E0A3
:100EE000EA5BFC4FE4916E2F7E2F8E2FDF91CF9126
:100EF0001F910F91FF90EF9008950D2F10E0282F74
:100F000030E0442329F02A5B3C4FF901249130E082
:100F1000F6E0CF9FC0011124EFEFF0E0BF010E9487
:100F20004D24AB018C2F90E0880F991FA5E5A49F5D
:100F3000B001A59F700D1124861B970B982F990F58
:100F4000980FBF01601B710B629FD001639FB00DB2
:100F5000729FB00D11248B2F9D9FB0011124672F1C
:100F60007727EF01C61BD70BBE01629FE001639F8D
:100F7000D00D729FD00D11247F01E91AF108E09E77
:100F8000B001E19E700DF09E700D1124672F772740
:100F9000E61BF70BE29F8001E39F100DF29F100DFF
:100FA0001124E12F722F4230510599F048F4411578
:100FB000510569F04130510581F0EB2F8D2F07C0AD
:100FC0004430510569F080F046305105B1F76E2F7D
:100FD0008DCFE22F7B2F812FFACFE22F7D2FF7CFFE
:100FE000EB2F822F712FF3CF7B2F822FED2FEFCF9F
:100FF00041E00C94630708950C94F807CF93DF93B6
:10100000762FE901682F842F0E94FC07798368837B
:101010008A83DF91CF910895413808F040E80C941D
:10102000FE0780918202982F9E7F61F4817082601A
:101030008093820280918502813818F080E8809345
:10104000850208958635B0F381708465F1CF88E01C
:1010500090E00C943F25CF92DF92EF92FF926B01CC
:101060007C010E941108B701A60188E090E0FF9082
:10107000EF90DF90CF900C945D25E2E8F2E083E002
:10108000808311828FEF828380E883831482608162
:101090007181828193810C942B088091820280FF60
:1010A00002C08695089580E008959091860293305D
:1010B00018F49F5F90938602882351F0609182021A
:1010C0007091830280918402909185020C942B0888
:1010D000089581E00C94550890918602992319F0A7
:1010E000915090938602882351F060918202709112
:1010F000830280918402909185020C942B080895BC
:1011000081E00C946C0870E00C94540F609108011D
:101110008091820280FF0AC08091070123E0829FB4
:10112000C001112489579D4F0C94830880910901B7
:1011300090910A0123E0829FF0011124E957FD4FAD
:10114000891750F71182108212828F5F3396F8CF81
:101150009091820290FF14C09091090120910A01A0
:1011600033E0939FF0011124E957FD4F921710F0DF
:101170000C9486088183608342839F5F3396F6CF09
:101180000895CF93DF9300D00F92CDB7DEB7909143
:10119000820290FF0AC09E012F5F3F4F0E940C0801
:1011A0004B8169818A810E94A8080F900F900F904F
:1011B000DF91CF910895CF93DF93EC01EC81F0E0C4
:1011C000EF5BFD4F4491E2E8F2E0628181810E9491
:1011D000C1088C818F5F8C83DF91CF910895CF936D
:1011E000DF93EC01E2E8F2E0438162818C810E94AE
:1011F000C1088C818F5F8C83DF91CF9108950F930D
:101200001F93CF93DF9300D00F92CDB7DEB78C0141
:101210008091610181110AC09E012F5F3F4F40E81C
:101220006FEF0E940C088A8180936101F80164814C
:10123000613069F08091610140E0662361F040E037
:10124000623011F44091610180E060E004C060917F
:10125000610140E080E00E94A808F801848190E0EC
:10126000019663E070E00E94612484830F900F90E8
:101270000F90DF91CF911F910F910895AF92BF9280
:10128000CF92DF92EF92FF920F931F93CF93DF9352
:1012900000D00F92CDB7DEB7182FF62E042FE22E16
:1012A0009091820290FF29C0E92FE695AE2FB0E021
:1012B000A05DBE4F8C918093B1019E7F923059F515
:1012C0009E012F5F3F4F812F0E940C084B81698147
:1012D0008A810E94A80810938302F09284020093EE
:1012E0008502EE2051F0609182027091830280911C
:1012F0008402909185020E942B080F900F900F900E
:10130000DF91CF911F910F91FF90EF90DF90CF90E1
:10131000BF90AF900895823019F400918502DBCF21
:10132000863019F410918302D6CF8930D9F38931F0
:1013300091F6E9518E2F8170D82EE695F0E0EF5BA3
:10134000FC4FA590B490C12CBB2460910B01C61634
:1013500018F00E948608BFCF2C2D30E0A29EC0015D
:10136000A39E900DB29E900D112470E00E944D241A
:10137000812FD11013C0860F40910901420F532FC6
:10138000511D9A01220F331F240F351F29573D4F3E
:10139000402F6F2D0E940C08C394D7CF861BECCF33
:1013A000E2E8F2E09181282F4381628188E0890F91
:1013B0000C943E0981E00C94D009E2E8F2E09181BE
:1013C000282F4381628188EF890F0C943E0981E0C8
:1013D0000C94DD09E2E8F2E0628128E0620F08F493
:1013E0006FEF282F438181810C943E0981E00C949A
:1013F000EA09E2E8F2E0628128E0621B08F460E0BA
:10140000282F438181810C943E0981E00C94F909D5
:10141000E2E8F2E0438128E0420F08F44FEF282F82
:10142000628181810C943E0981E00C94080AE2E813
:10143000F2E0438128E0421B08F440E0282F62815B
:1014400081810C943E0981E00C94170A20E00C94F1
:101450003E09EF92FF921F93CF93DF93EC0110E0D0
:10146000EE24EA94F12C60910B01161770F00E94A3
:1014700086089A818C8190FF27C08F5F8C83DF91D3
:10148000CF911F91FF90EF90089520910901422F75
:10149000410F5527551FCA019A01220F331F280FEC
:1014A000391F29573D4F70E0C7010E946124962FD4
:1014B0008C814091850260918402199F800D1124D6
:1014C0000E940C081F5FCFCF8150D8CFAF92BF9240
:1014D000CF92DF92EF92FF920F931F93CF93DF9300
:1014E000FC0182810FEF80FF01E010E04EE0A42EAE
:1014F00080910B011817C8F00E9486088091630143
:10150000013009F055C0811102C080910B0181505A
:1015100080936301DF91CF911F910F91FF90EF9026
:10152000DF90CF90BF90AF900895C0910901C12E78
:10153000D12CCC0DDD2DD11DCE01880F991FC80FE8
:10154000D91FC957DD4F198218821A8234E0E32E61
:10155000F12CB12C809163018B0D8F301CF16A2D21
:101560000E943F24892F082E000C990BC816D9061B
:1015700091F4809185028E9DA0018F9D500D1124C4
:1015800055954795559547959E01609184028091A8
:1015900083020E940C08B00EF1E0EF1AF108D1F6B8
:1015A0001F5FA6CF87FFDFCF90910B01890FDBCFA5
:1015B00090E0019660910B0170E00E946124A8CF39
:1015C0000F931F93CF93DF938091090190910A01AC
:1015D00023E0829FF0011124E957FD4F891740F164
:1015E000C0E0D3E060910B01C61740F10E9486086D
:1015F0002091050180916201820F80936201909198
:101600000601920F90930601191654F4082E000C4F
:10161000990B40910B014150550B841795071CF015
:10162000219520930501DF91CF911F910F9108958E
:101630001182108212828F5F3396D0CF0C2F10E070
:1016400070E0C8010E94612420910901820F482F97
:1016500050E020916201022E000C330B0217130799
:10166000BCF020910601022E000C330B201731072D
:101670007CF08D9F9001112429573D4F40918502A8
:1016800060918402809183020E940C08CF5FAACFF0
:10169000FA01EE0FFF1FE40FF51FE957FD4F11820E
:1016A00010821282F3CF8F929F92AF92BF92CF920D
:1016B000DF92EF92FF920F931F93CF93DF93EC0192
:1016C0004C81042F10E09801D8010E94A5249B01B1
:1016D000AC010E94BB244B015C01E0E2F0E0E01BA6
:1016E000F10BA5E5B0E0AC019B010E94BB246B01AE
:1016F0007C019F01DF010E949D249B01AC010E949F
:10170000C6249B01AC01280D391D4A1D5B1DC70174
:10171000B6010E947524F22E822F90E039E23F1527
:1017200060F143E0249F9001112435952795122FF5
:10173000109500E085E5E82EEF1880910B01081761
:1017400058F10E9486089C8181E0992319F090321B
:1017500019F48FEF8093040180910401890F8C8329
:10176000DF91CF911F910F91FF90EF90DF90CF907D
:10177000BF90AF909F908F90089525E530E0B9011C
:10178000681B790B9B01220F331F260F371F37FF72
:10179000CCCF2F5F3F4FC9CF8E2D01FD8F2D2091D4
:1017A0000901622F600F7727771F9B01220F331FDC
:1017B000260F371F29573D4F412F609184020E9409
:1017C0000C080F5FBACF0F931F93CF93DF93EC01F9
:1017D00010E000E090910B019017110609F06CF4F5
:1017E0000E9486088C8190E00196817099278C83F5
:1017F000DF91CF911F910F91089520910901A801C8
:10180000420F511D9A01220F331F240F351F2957F4
:101810003D4F4C8160918402809183029695901790
:10182000110651F04CF0442349F0409185020E948A
:101830000C080F5F1F4FCECF4423B9F340E0F7CF22
:101840004F925F926F927F928F929F92AF92BF92D0
:10185000CF92DF92EF92FF920F931F93CF93DF937C
:10186000FC016280448081E08483E1E4F2E07490D2
:10187000E0ECF2E0E491812C75E0972EF2E0CF2EBF
:10188000DD24D394AA24AA94B12C55245A94E719A0
:101890000E2F10E080910B01881690F0DF91CF9110
:1018A0001F910F91FF90EF90DF90CF90BF90AF907E
:1018B0009F908F907F906F905F904F900C948608D0
:1018C000E82CF12C82E0861568F09E9CF0019F9C2C
:1018D000F00D1124EC59FE4F80918302808380919A
:1018E00084028183411023C09E9CF0019F9CF00DD7
:1018F0001124EC59FE4F1382128220910901C70175
:10190000820F911D9C01220F331F280F391F295769
:101910003D4F9E9CF0019F9CF00D1124EC59FE4F11
:101920004281618180810E940C088394B3CF9E9C88
:10193000E0019F9CD00D1124CC59DE4F8B81882370
:10194000E9F081508B83859DC00111246C8170E08A
:101950000E944D24FB01FF27EF5BFD4F8491E82F90
:10196000E719E59DC0011124B8010E944D24809122
:101970008502689FB00111247A83BFCF0E941A2587
:1019800020918502269521582C9DA0012D9D500D5A
:101990001124452F5527841795070CF0AECF82E010
:1019A000861588F40E941A25B5010E946124888357
:1019B0000E941A25209184022695622F70E00E94D1
:1019C0006124280F29839E9CF0019F9CF00D112417
:1019D000EC59FE4F128280918502893C58F088ECC8
:1019E0009E9CF0019F9CF00D1124EC59FE4F8483C6
:1019F000838383CF8431A0F784E1F2CFE2E8F2E081
:101A000080818E7F808360817181828193810E9439
:101A10002B081092B2012FEF80E792E02150804016
:101A20009040E1F700C000000C94860860918202AB
:101A3000669570E04BE050E08CE091E00E942A2532
:101A4000892B19F481E08093B2010E94971D909335
:101A5000AB018093AA0108959091820290FF35C056
:101A60009170811128C0926090938202662351F098
:101A7000609182027091830280918402909185022C
:101A80000E942B0860918202669570E04BE050E066
:101A90008CE091E00E942A25892BA1F01092B201DE
:101AA00081E08093AD014091850260918402809134
:101AB00083020C94260A8B3210F09465D5CF880FE0
:101AC000982BD2CF0E94160DEBCF0895682F9091DE
:101AD0008202969581E0890F8B3208F081E00C94A8
:101AE0002C0D81E00C94660D682F909182029695E2
:101AF0008FEF890F09F48AE20C942C0D81E00C948D
:101B0000740D61E00C942C0DE2E8F2E080818160BC
:101B1000808386950C94810D8091820280FD0C94C7
:101B2000FE0C0C94840D60E00C942C0D8091B0019F
:101B300081112EC00E94151C811104C00E94BA1C84
:101B40000E943D080E9427086093820270938302DE
:101B500080938402909385026E7F61F40E943D0819
:101B60000E9427086093820270938302809384020C
:101B7000909385020E9411081092B2018091820216
:101B800080FF03C086950E94930D81E08093B00191
:101B900008950F931F93CF93DF938091B201882311
:101BA00009F496C08091B101E0918202E695E81BAC
:101BB000E093AC01823091F5F0E0E35CFD4FE491FD
:101BC000CE2FD0E00BED18E08091AD01882361F0BD
:101BD0001092AD010E94971D9093AB018093AA01D2
:101BE0001092AF011092AE010E94971DE091AA01E0
:101BF000F091AB018E1B9F0B8F3F9F4708F068C091
:101C0000EC0FFD1FF093AB01E093AA018AEA91E08B
:101C1000F801DF91CF911F910F910994863049F41B
:101C2000F0E0E65CFD4FE491CE2FD0E00FEE18E03F
:101C3000CBCF893051F4E695F0E0E95CFD4FE491BB
:101C4000CE2FD0E009E21AE0BFCF8F3051F4E695F5
:101C5000F0E0EC5CFD4FE491CE2FD0E006E61AE018
:101C6000B3CF853149F4F0E0EF5CFD4FE491CE2F26
:101C7000D0E000EE1AE0A8CFC8E2D0E003E51BE018
:101C8000883109F4A1CF833239F4EFE2F2E0C59153
:101C9000D4910FEF18E098CFC4EFD1E003EE1BE032
:101CA000843209F491CFC0EDD7E00BEF17E0853215
:101CB00009F08ACF8E2F63E00E943324E92FF0E0F1
:101CC000E45DFD4FE491CE2FD0E000E21CE07CCF3C
:101CD000DF91CF911F910F910895FA01811101C0F9
:101CE000FB010994CF93DF93C82FD62F0E944D0894
:101CF0008C1740F00E944D088D1720F4DF91CF9192
:101D00000C94710D8C2FDF91CF910C94810D1F934A
:101D1000CF93DF93EC01FB011281112309F4C2C0C0
:101D20000E94501B8272CD3CFCE5DF0709F4A0C085
:101D300008F044C0C73CECE5DE0709F485C0F0F4C8
:101D4000C43C9CE5D90709F475C048F4C33CDC45A4
:101D500009F46CC0812FDF91CF911F910895C53C8C
:101D60009CE5D90709F46BC047EE59E06AED79E0CC
:101D7000C63CDC4579F70E946D0E5AC0CA3CFCE5B2
:101D8000DF0709F46BC068F4C83CECE5DE0709F432
:101D900060C046EF59E065E07AE0C93CDC4559F3A4
:101DA000D9CFCB3C9CE5D90709F45DC040E858E0A9
:101DB00069E678E0CC3CDC45F1F2CCCFC23DFCE5F5
:101DC000DF0709F464C098F4CF3C9CE5D90709F417
:101DD00058C008F452C0C03DFCE5DF0709F454C008
:101DE000C13DDC4509F0B6CF6EE089E01CC0C53DC1
:101DF0009CE5D90709F451C058F4C33DFCE5DF0761
:101E000009F448C0C43DDC4509F0A4CF88E136C0E0
:101E1000C63D9CE5D90709F443C06AE285E2CE35A8
:101E2000DD4509F097CF0E94720E02C00E948C0D12
:101E300010E090CF4EE75DE061E77DE09CCF41E7A9
:101E40005DE06EE77DE097CF4AED59E067EE79E01F
:101E500092CF45E05AE066EF79E08DCF43E25AE059
:101E600064E17AE088CF44E15AE063E27AE083CF2C
:101E700049E658E060E878E07ECF81E00E94810D7D
:101E8000D7CF65E082E0CFCF68E086E0CCCF64E1D9
:101E90008FE0C9CF67E185E1C6CF62E289E1C3CFB8
:101EA00083E2ECCF11E056CF269A45B14F7B55B176
:101EB0005064EFB7F8949B01220F331F260F371F92
:101EC000280F391F2817390741F4EFBF8FE594E039
:101ED0000197F1F700C000000895DC016D91CD017C
:101EE00078E055B9000000C067FF45B9660F0000F3
:101EF00000C000C000C045B900C07A9591F7E2CF9C
:101F00000F931F93CF93DF93C42FD22FFC018281B5
:101F10008823C9F04093B5010E94971D9093B401A6
:101F20008093B30180E28C0F883008F050C0C770F6
:101F300081E001C0880FCA95EAF7DF91CF911F9128
:101F40000F910C946B131091B501141335C080914F
:101F5000B3019091B4010E94AF1D883C910560F5DA
:101F6000C0E2CD0F1D17B9F080E2810F883040F438
:101F7000177081E001C0880F1A95EAF70E9472136A
:101F8000C83048F481E09D2F977001C0880F9A9562
:101F9000EAF70E946B13802F0E946313C830B8F4D5
:101FA000D77081E001C0880FDA95EAF7DF91CF9111
:101FB0001F910F910C94721380E28C0F883038F4CB
:101FC000C77081E001C0880FCA95EAF7EFCFDF91B3
:101FD000CF911F910F9108950F939C01CB01243F46
:101FE0004CE5340759F1A8F4293DFCE53F0701F120
:101FF0002A3D4CE53407D1F1283D3C4591F406E2F9
:1020000021EE41EE68ED7CE50E94800F80E00F91AB
:102010000895263FFCE53F07E9F0B0F0273F3C4537
:10202000F9F0FC018281882339F11092B501EFCFDC
:1020300007E225EE45EE69ED7CE5E6CF06E221EE0E
:1020400040EE64EF7CE5E0CF07E225EE44EE65EF7D
:102050007CE5DACF06E221EE42EE66EF7CE5D4CFF6
:1020600007E225EE46EE67EF7CE5CECF08E221E001
:1020700045EE6AED7CE5C8CF81E0C9CFCF93DF9311
:10208000EC01FB018281882309F419C1C230FCE50F
:10209000DF07C0F1C6319CE5D90730F09E012B5F08
:1020A0003C452930310570F50E94281C9093690247
:1020B00080936802C031ECE5DE0709F4CFC008F078
:1020C0005BC0C8308CE5D80709F4B6C088F5C430C9
:1020D000ECE5DE0709F4A8C0C0F4C2308CE5D807EF
:1020E00009F49CC0809168028260C330DC4509F429
:1020F00098C080916802909169020E94361C0E94EB
:10210000B11580E0DF91CF910895809168028061E0
:10211000C630ECE5DE0709F484C08091680288606F
:10212000C730DC4508F47DC080916802806279C0C8
:10213000CC308CE5D80709F489C070F4809168022E
:102140008C60CA30ECE5DE0709F46BC008F478C097
:10215000809168028E7F65C0CE308CE5D80709F487
:1021600079C0809168028B7FCF30DC4508F459C07C
:10217000809168028F7E55C0CC3FECE5DE0709F404
:1021800057C030F5C3318CE5D80709F46FC078F437
:10219000C131ECE5DE0709F465C0C231DC4509F068
:1021A000A8CF0E94B115809168028F773AC0C531DF
:1021B0008CE5D80709F462C008F476C08091690202
:1021C0008160CB3FDC4509F094CF8093690291CFC9
:1021D000C115FDE5DF0709F44DC088F4809169025F
:1021E0008D7FCE3F9CE5D90781F3809169028E7F78
:1021F000CF3FDC4550F3809169028360E6CFC23067
:10220000FDE5DF0709F459C008F444C080E0C3309D
:10221000DD4509F06ECF0E94BC1C6BCF8091680237
:1022200081608093680265CF809168028460F9CFF5
:10223000809169028260C9CF809168028064F1CF89
:102240000E94B115809168028068EBCF809168028E
:102250008D7FE7CF80916802877FE3CF809168020E
:102260008F7DDFCF809168028F7BDBCF809168020A
:10227000837FD7CF809169028C7FA7CF809168023E
:1022800082FB992790F921E0922790FB82F990FB3D
:1022900083F9C7CF80916902982F909591708E7FB6
:1022A000892B90FB81F991CF0E94B1159091680222
:1022B000892F97FB87F98058B4CF81E0ACCF81E0BC
:1022C00021CFCF93DF93EB0186319C4511F50E941E
:1022D000501B9A81992399F08A7A91E009F490E051
:1022E0009093B601811109C089E20E940A1B0E94E5
:1022F000A01B80E0DF91CF91089585E3F6CF809118
:10230000B601811104C089E20E94111BF0CF85E360
:10231000FBCF81E0EFCF9093BC018093BB01089588
:10232000E091BB01F091BC01309721F00190F08168
:10233000E02D099480E00895E091BB01F091BC018B
:10234000309721F00280F381E02D099408952091C7
:10235000B9013091BA012817390771F09093BA0189
:102360008093B901E091BB01F091BC01309721F05D
:102370000680F781E02D099408952091B7013091EE
:10238000B8012817390771F09093B8018093B7010D
:10239000E091BB01F091BC01309721F00084F18500
:1023A000E02D099408950E94A31D6093CE017093BF
:1023B000CF018093D0019093D1016093CA017093B3
:1023C000CB018093CC019093CD01089585B78068AF
:1023D00085BF85B7806885BF0895089508950C94DA
:1023E000ED1108950C94F1110E94E6118DE09CE12D
:1023F0000E94F31D0E94EE110C94EF1181E00895EC
:102400000C94FE11089508950E9402120C94031278
:102410000E948E1D0E9403070E94960D0C94F211DB
:102420008F929F92AF92BF92CF92DF92EF92FF92E4
:102430000F931F93CF93DF93CDB7DEB72A970FB6D5
:10244000F894DEBF0FBECDBF0E94160781110E9417
:10245000D3115EEB852E51E0952E10E000E0A02E0A
:10246000802F0E94F1066C01F401E190F1904F0180
:10247000E816F90609F45CC080915C0281FD0E94B7
:10248000FA06C7018C259D25B12CEE24E394F12C8E
:102490009C012E213F21232B09F444C00E940012ED
:1024A0008823A9F0BE82AF82CE20DF2081E0CD2834
:1024B00009F480E088870E94971D8160782F9A87B1
:1024C00089874E815F8168858A850E94C212000FCC
:1024D000111FF801E254FE4F80819181E826F92610
:1024E000F182E0820E94C90D0E9490119091BD017D
:1024F0008917A9F10E9490118093BD012A960FB609
:10250000F894DEBF0FBECDBFDF91CF911F910F9129
:10251000FF90EF90DF90CF90BF90AF909F908F9003
:102520000C94B604B394EE0CFF1CF0E1BF12B0CFD4
:102530000F5F1F4F0630110509F091CF8FEF898390
:102540008A831B820E94971D8160782F9D838C83D4
:1025500049815A816B818D810E94C212C3CF2A9614
:102560000FB6F894DEBF0FBECDBFDF91CF911F91A4
:102570000F91FF90EF90DF90CF90BF90AF909F9022
:102580008F900895DF92EF92FF920F931F93CF9356
:10259000DF93CDB7DEB72B970FB6F894DEBF0FBE33
:1025A000CDBF7A878B87F42E052F162FE72ED82ED6
:1025B00061110E94701B1E821D827E2DEC82DD82C5
:1025C0004F2D502F612F8D2D9E812B960FB6F89495
:1025D000DEBF0FBECDBFDF91CF911F910F91FF9056
:1025E000EF90DF900C942718FC01808191810C946E
:1025F000DC1ACF93C82F882329F18CEF8C0F813AF6
:10260000A0F46C2F80911701909118010E94D31CA7
:10261000882329F08C2F0E94111B0E94A01B8C2F55
:102620000E940A1BCF910C94A01B80E28C0F883073
:1026300048F4C77081E001C0880FCA95EAF70E948C
:10264000531BF0CFCF910895882329F19CEF980F69
:10265000913A20F40E94111B0C94A01B90E2980F59
:10266000983050F4877091E001C0990F8A95EAF78D
:10267000892F0E94591BF0CF9BE5980F933020F4CF
:1026800090E080E00C94A711885A873120F490E004
:1026900080E00C94BD1108951F93CF93DF93182F02
:1026A000EB010E94F912209731F4812FDF91CF9135
:1026B0001F910C9424138FE99FE00197F1F700C05C
:1026C00000002197F0CF70E060E0893311F460E5FD
:1026D00070E00C944C13882321F00E94531B0C943F
:1026E000A01B0895882321F00E94591B0C94A01B65
:1026F0000895BF92CF92DF92EF92FF920F931F93B4
:10270000CF93DF936C01D62FC72FFC010281158177
:1027100012951F700E94281BE82E8823A1F0E02E3E
:10272000002389F08C2F807F803429F080E28D0F88
:10273000E12C883040F082E00E94F11B0E94281BAF
:1027400091E0E82EE926BC2EB2949FE0B922EB2D51
:10275000F0E0E056FA4D0C9497241C2F1F70C07FB8
:1027600011F01295107F0023A9F0112359F080E297
:102770008D0F883010F0D11109C0812F0E94531B9A
:102780000E94A01B8D2F0E94F91214C0812F0E945D
:10279000631BF6CF8D2F0E942413112359F080E282
:1027A0008D0F883010F0D1112CC0812F0E94591B41
:1027B0000E94A01B2B2D2850330B2430310520F410
:1027C0000E9490110E94B604EE2009F477C10E9485
:1027D000241B80FD73C1F60112820E941E1B0E9401
:1027E000AB19C6010E947F150E941E1BDF91CF917D
:1027F0001F910F91FF90EF90DF90CF90BF900C94BE
:10280000CC19812F0E94691BD3CFFC2FFF70FF2EA4
:10281000C07FC03219F0F29480EFF822DD2369F016
:10282000D13049F1002391F1112351F1F601858155
:1028300080FFA8CF8F70858323C0002381F0111102
:1028400006C00E94831B8F290E946B13B3CF1130E7
:10285000C1F70E94831B8F290E94891BABCF1111E6
:1028600006C00E94961B8F2D0E947213A3CF1130B9
:1028700009F4A0CFF6CF002329F0163008F09ACF44
:102880008F2DE2CF153008F095CFEDCF112359F3FE
:10289000D93349F4FFEF27EE33E0F15020403040C8
:1028A000E1F700C000008D2F0E94241383CF8C2FEE
:1028B000837009F041C001117DCF4D2F429546959F
:1028C0004770440F440F0D2F0F7010E030E020E0F0
:1028D000042E04C0000F111F221F331F0A94D2F7C9
:1028E00060E070E0CB01D4FF0FC06FE070E080E0EB
:1028F00090E004C0660F771F881F991F4A95D2F792
:102900006095709580959095C695C695C370602B1F
:10291000712B822B932BC23049F058F4C13019F03F
:102920000E945D1947CF0E944B1944CF0E946F1936
:1029300041CF0E9449193ECF8695002311F08C2F7C
:102940008170882309F436CF4D2F42954695477004
:10295000440F440F0D2F0F7010E030E020E0042EE4
:1029600004C0000F111F221F331F0A94D2F760E02A
:1029700070E0CB01D4FF0FC06FE070E080E090E02A
:1029800004C0660F771F881F991F4A95D2F760957C
:10299000709580959095C695C695C370602B712BE8
:1029A000822B932BC23049F058F4C13019F00E94A9
:1029B000221A00CF0E94101AFDCE0E94341AFACEBD
:1029C0000E948519F7CECF70002329F08C2F0E942A
:1029D000AB198D2F39CF8D2F0E9472138C2F0E942F
:1029E000CC19E8CED23F89F160F4D03FC9F0D13F95
:1029F00029F1002309F442C01111C4CE8C2F8F712C
:102A000021C0D33F39F1D43FA1F7002369F1CF7141
:102A10008C2F0E94AB1963E08C2F0E94D61BCACE6C
:102A2000002341F0153008F0C5CE8C2F8F710E9425
:102A3000EF19C0CE163008F0BDCEF7CF8C2F8F71B6
:102A4000002369F20E94AB19B5CE8C2F8F71002341
:102A5000C9F3C5CF002329F08C2F8F710E949619DE
:102A6000A9CE0E949119A6CE81E00E94F11B1230DE
:102A700008F4A0CE82E00E94F11B9CCE112359F0F5
:102A8000D93309F010CF8FEF97EEE3E081509040FB
:102A9000E040E1F706CF8C2F8F71A1CF4C2F4F7004
:102AA0006D2FC6010E94BE040E94C11883CE4C2F18
:102AB0004F706D2FC6010E94C1047CCEDF91CF9173
:102AC0001F910F91FF90EF90DF90CF90BF900895EE
:102AD0000F931F93CF93DF93EC01688179818A81F3
:102AE0000E94E61A8C010E94461A0E944819B801F9
:102AF000CE01DF91CF911F910F910C947913CF9359
:102B0000DF93EC018B819C81892B29F0888199814D
:102B100089238F3F59F4DF91CF910895CE010E9410
:102B20006815CE01DF91CF910C942604CE010E944E
:102B300049048111F3CF0E94281B882361F38A8105
:102B4000882349F382E0DF91CF910C94F11B0E941E
:102B5000701B0E94801B0C94A01B0E94181B0C94DD
:102B6000A7150E94601B0C94AD15E92FE295EF703C
:102B7000E250EE3070F4F0E0E055FA4D0C949724FA
:102B8000803F19F020F4883E20F481E00895843FCE
:102B9000E1F380E00895883EC0F3813FD1F7F5CF9F
:102BA00093FB882780F908950E94DC1A0C94B515D0
:102BB000CF93DF9300D000D00F92CDB7DEB70F9048
:102BC0000F900F900F900F90DF91CF910895CF93BA
:102BD000DF9300D000D000D0CDB7DEB726960FB679
:102BE000F894DEBF0FBECDBFDF91CF9108951F9344
:102BF000CF93DF93C091D30116E08091D4018C1361
:102C000004C0DF91CF911F910895D0E01C9FF00187
:102C10001D9FF00D1124EB52FE4F408151816281C6
:102C20007381848195810E94E7152196C770E5CF55
:102C300040910502509106026091070270910802CE
:102C40008091090290910A020C94E7151F93CF938B
:102C5000DF9380910A02807FA9F480910702882384
:102C600089F08091D301C091D401609105027091E7
:102C70000602A0910802B0910902D62FD72316E0D0
:102C8000C81304C0DF91CF911F91089590E0109771
:102C900011F0DF3F19F401968770F2CF189F900171
:102CA000199F300D1124F901EB52FE4F418147135A
:102CB000F2CF40814613EFCF42814111ECCF4381E7
:102CC00054814A1B5B0B483C510528F780910A024E
:102CD0008F70806180930A02F901E652FE4F808175
:102CE0008F708061808385E092E00E947F15DF9184
:102CF000CF911F910C94F715AF92BF92CF92DF92B4
:102D0000EF92FF920F931F93CF93DF93CDB7DEB770
:102D100061970FB6F894DEBF0FBECDBF8C0185E082
:102D2000F801DE011D9601900D928A95E1F7F801F8
:102D300040815181E28085E0C82E82E0D82E6091EA
:102D40000802709109026115710509F461C1909141
:102D5000050220910602892F82238F3F09F458C172
:102D6000A380B480F0900702F501E61BF70BFF206B
:102D700009F4FCC080910A02382F307FE83CF1054D
:102D800008F0B2C0311179C0FE2C251323C0941372
:102D900021C0E1101FC08F70806180930A020E94E1
:102DA0001816C6010E947F1580910A02F8018583DA
:102DB0008F2D61960FB6F894DEBF0FBECDBFDF91A9
:102DC000CF911F910F91FF90EF90DF90CF90BF9028
:102DD000AF900895AB2829F0842F85238F3F09F009
:102DE00033C180E0F82FF170DF2E80FF3CC080916E
:102DF000D3012091D40136E0821315C04D875E8740
:102E00008D859E850E94DC1A292F22952F702230F5
:102E1000F0F0243018F59F70F1F0F8019581907F63
:102E2000D1F4D12C1EC090E0389FF001399FF00DF5
:102E30001124EB52FE4F6181651306C0608164135B
:102E400003C062816E110FC001968770D5CF9F704D
:102E500011F0882331F3805E883018F3C8010E9496
:102E60007F15FD2CA5CFEE2009F4A2CF80910A0298
:102E7000816080930A02F12C9BCF251306C0941326
:102E800004C0F801EE2009F48DC04D875E878D8562
:102E90009E850E94D415882319F1EE2009F18091B6
:102EA0000A02803270F020910502309106023887C4
:102EB0002F831986BB86AA868C87CE0107960E942F
:102EC0007F1586E0F801A5E0B2E001900D928A95A9
:102ED000E1F70E9426160E941816FF24F39468CF8B
:102EE000C8010E947F15F9CF311113C07A2DB98A1C
:102EF000A88A6E2D89890E94D81585E092E00E94EB
:102F00007F1586E0F60111928A95E9F70E9418165E
:102F1000B2CF25130FC094130DC0E1100BC0F80100
:102F20008583C8010E947F1586E0F60111928A957B
:102F3000E9F73ECF4D875E878D859E850E94D4152B
:102F4000882371F2EE2061F280910A02803208F447
:102F5000B8CF20910502309106023A8329831B8263
:102F6000BD82AC828E83CE010196A9CFE83CF105EB
:102F700008F041C0FE2CEE2009F4B2CF25132AC080
:102F8000941328C080910A0280FD1BC0982F907F67
:102F9000C1F0F8018583903F31F0982F907F905FCA
:102FA0008F70892B8583C8010E947F1586E0F80108
:102FB000A5E0B2E001900D928A95E1F70E94181603
:102FC000F7CE86E0F801A5E0B2E001900D928A9577
:102FD000E1F7EECE4D875E878D859E850E94D415E4
:102FE00081116FCF80910A02816080930A02C8012B
:102FF0000E947F15DDCE7A2DB98AA88A6E2D898927
:103000000E94D81586E0F60111928A95E9F7D6CF8D
:10301000EE2009F465CF4D875E878D859E850E94E1
:10302000D415F82E882309F45BCF86E0F801A5E0DB
:10303000B2E001900D928A95E1F785E092E00E945E
:10304000F4120E942616BACF81E08E25CBCE1F93B4
:10305000CF93DF93CDB7DEB72C970FB6F894DEBFD2
:103060000FBECDBF4F83588769877A878B879C8730
:10307000CE0107960E947C16882369F08A859B857D
:10308000892B39F04F815885842F85238F3F09F094
:1030900071C016E05FC086E0FE013796DE01119632
:1030A00001900D928A95E1F78A859B85892B89F39A
:1030B0008F81988589238F3F61F32091D40130E07F
:1030C000C9010196877099274091D30148171906C5
:1030D00071F40E94B1151092D4011092D30186E0D0
:1030E000E5E0F2E0DF011D928A95E9F7D2CF96E0A4
:1030F000929FD001939FB00D1124AB52BE4FFE01A1
:10310000319601900D929A95E1F78093D4010E9437
:10311000F715BFCF819FC00111248B529E4F0E9493
:103120007C168823E9F0E091D3011E9FF001112461
:10313000EB52FE4F40815181628173818481958180
:103140000E94E7158091D30190E00196877099273E
:103150008093D3018091D3019091D4018913DACF68
:103160002C960FB6F894DEBF0FBECDBFDF91CF9186
:103170001F91089569857A858B859C850E94E71546
:1031800088CFEF92FF920F931F93CF93DF938C0121
:10319000892B81F0F12CEE24E394E8012196F801CB
:1031A0008491843770F4843008F05FC08130B1F0CE
:1031B0008230A1F1DF91CF911F910F91FF90EF909D
:1031C0000895853709F44CC008F43DC09CE7980F7A
:1031D000903780F78F770E94241349C00E5F1F4FEE
:1031E000FE01849190E2980F983060F48770FE2D74
:1031F00001C0FF0F8A95EAF78F2F0E94731B0E9470
:10320000A01B02C00E94F9128F2D815030F2EFE90D
:10321000FFE03197F1F700C00000F7CF0E5F1F4FBE
:10322000FE01849190E2980F983050F48770FE2D43
:1032300001C0FF0F8A95EAF78F2F0E94791BDFCF1D
:103240000E942413E1CF0E5F1F4FFE01C491C150B5
:10325000D8F28FE99FE00197F1F700C00000F7CFA7
:103260000E5F1F4FFE01F490CFCF0E94F9128E0126
:10327000CBCF08950C9439190E943A1960934B02F0
:1032800070934C0280934D0290934E020C94A715BC
:1032900008950C943C190F931F9300914B021091C9
:1032A0004C0220914D0230914E02602B712B822BEB
:1032B000932B1F910F910C943C190F931F93009126
:1032C0004B0210914C0220914D0230914E0260232E
:1032D0007123822393231F910F910C943C190F9318
:1032E0001F9300914B0210914C0220914D0230919E
:1032F0004E0260277127822793271F910F910C940C
:103300003C190C9439190C9481190E94831960930B
:103310004702709348028093490290934A020C94AA
:10332000A71560E070E0CB010C9485190F931F93F3
:1033300041E050E060E070E08A019B0104C0000FB2
:10334000111F221F331F8A95D2F7C901B8011F919F
:103350000F910C9485190F931F9341E050E060E0AA
:1033600070E004C0440F551F661F771F8A95D2F77F
:103370008091470290914802A0914902B0914A027F
:103380008A019B01082B192B2A2B3B2BC901B80161
:103390001F910F910C9485190F931F9341E050E0FA
:1033A00060E070E004C0440F551F661F771F8A95C8
:1033B000D2F7CB01BA0160957095809590950091F8
:1033C0004702109148022091490230914A0260233D
:1033D0007123822393231F910F910C9485190F93CE
:1033E0001F9341E050E060E070E004C0440F551FBF
:1033F000661F771F8A95D2F7809147029091480205
:10340000A0914902B0914A028A019B01082719271D
:103410002A273B27C901B8011F910F910C948519E8
:103420000F931F9300914702109148022091490287
:1034300030914A02602B712B822B932B1F910F919D
:103440000C9485190F931F93009147021091480225
:103450002091490230914A026023712382239323F1
:103460001F910F910C9485190F931F9300914702A0
:10347000109148022091490230914A026027712739
:10348000822793271F910F910C9485190895929587
:10349000907F890F982F977041E001C0440F9A9553
:1034A000EAF786958695869595E0899FF001112427
:1034B000E55FFD4F30E020E070E05191DF011197B2
:1034C000CB01022E02C0969587950A94E2F781708F
:1034D00081958527842385278C932F5F3F4F253047
:1034E000310559F708959295907F890F982F97701D
:1034F00086958695869525E0829FF0011124E55FEB
:10350000FD4F50E040E080E0219130E0092E02C004
:10351000369527950A94E2F721703327042E01C0CF
:10352000220F0A94EAF7822B4F5F5F4F4530510517
:1035300059F70895BF92CF92DF92EF92FF920F93C7
:103540001F93CF93DF938C01C0904702D090480225
:10355000E0904902F0904A0280914B0290914C0217
:10356000A0914D02B0914E02C82AD92AEA2AFB2A1C
:10357000CFE1D0E0BC2ED701C6010C2E04C0B69519
:10358000A795979587950A94D2F780FD0EC021974D
:1035900088F7B12C8B2DDF91CF911F910F91FF9068
:1035A000EF90DF90CF90BF900895B8018C2F0E94CC
:1035B000DF04019761F3EECFCF93DF93EC010E941C
:1035C0009A1ABE01DF91CF910C94DF041F93CF9321
:1035D000DF93EB019091D201992331F0CB01DF9180
:1035E000CF911F910C94DC1A882379F0CB010E94B3
:1035F0009A1A182F682FCE010E94471ABE01812FF8
:10360000DF91CF911F910C94DF04CB010E94731ABC
:10361000182FF4CF682F80911701909118010C9406
:10362000091D682F80911701909118010C940B1DB2
:1036300080911701909118010C940D1D80914F02FB
:10364000859585958595089580914F028770089599
:1036500090914F02977081E009F480E00895909175
:10366000690292FB222720F9281751F080FB92F97A
:103670009093690280916802909169020C94361CC3
:1036800008958091690282FB882780F991E089275B
:103690000C942F1B81E00C942F1B80E00C942F1BAB
:1036A00080915B02089590915B02892B80935B026D
:1036B0000895809590915B02982390935B02089502
:1036C00010925B02089590915A02892B80935A02BE
:1036D0000895809590915A02982390935A020895E4
:1036E00010925A02089590915902892B80935902A1
:1036F00008958095909159029823909359020895C6
:1037000010925902089580915002089508950C94E2
:10371000861B9091690292FD08C090915002981703
:1037200021F0809350020C94871B089580915002E1
:10373000882329F01092500280E00C94871B089592
:10374000E0911701F091180180915B028083E09174
:103750001701F0911801808190915A02892B808382
:10376000E0911701F0911801808190915902892B05
:10377000808390915002992381F0E0911701F0919C
:1037800018018081892B8083809117019091180105
:103790000E94C11C81110E94961B8091170190917B
:1037A00018010C949C1108950C94D31B90916902FC
:1037B00092FD10C098E0899F90011124622B6093C4
:1037C0004F020E94AB1980914F0285958595859592
:1037D0000C94D41B0C94AB1910924F0280E00C9403
:1037E000D41B90914F028095892380934F02282FFC
:1037F000277039F4282F082E000C330B921713066C
:1038000021F49091690292FF07C085958595859571
:103810000E94CC190C94EC1B089580E008956FEF82
:103820007FEF90E080E00C94692590E080E00E94BA
:10383000452521E08A3E9E4F09F020E0822F089521
:1038400082E090E00C94372583E090E00C943725DB
:10385000CF9384E090E00E943725C82F82E290E069
:103860000E943725982F8C2FCF910895CF93C92F81
:10387000682F84E090E00E944B256C2F82E290E05C
:10388000CF910C944B25AB01BC018FE090E00C94E0
:103890005D25AB01BC0183E190E00C945D2560E007
:1038A00070E0CB010C94491C60E070E0CB010E94F9
:1038B000431C0C944F1C6AEE7EEF90E080E00E9467
:1038C000692560E082E090E00E944B2560E083E0A3
:1038D00090E00E944B2510924B0210924C021092E5
:1038E0004D0210924E0260E084E090E00E944B2571
:1038F00060E082E290E00E944B2560E085E090E08D
:103900000E944B2560E086E090E00E944B256FEF1F
:1039100087E090E00E944B2540E050E0BA0188E04B
:1039200090E00E945D2560E08DE090E00E944B25D4
:1039300040E050E0BA0188E190E00E945D2560E03F
:1039400087E190E00E944B2540E050E0BA018CE115
:1039500090E00E945D2570E060E080E290E00E94CF
:10396000692540E050E0BA0188E190E00E945D25C1
:103970000C94541C0C945B1C682F8EE090E00C940B
:103980004B259C012E5F3F4FAC01485F5F4F80E0AD
:103990002417350709F40895F90191919F0199239E
:1039A000B9F38F5FF5CF662349F0FC013296089694
:1039B0002191261729F0E817F907D1F780E008953B
:1039C00081E008959C01FC0132969FEF80E04191D7
:1039D000461751F09F3F19F4411101C0982F8F5F96
:1039E0008630A9F79F3F09F40895290F311D97FDEF
:1039F0003A95F90162830895FC0132960896219167
:103A0000261303C0DF0111971C92E817F907B9F7D5
:103A100008950C94E21C0C94FC1C029626E0FC0118
:103A200011922A95E9F70895089508950C94151DAB
:103A30008091B902843049F10E94161D80E00E94F5
:103A4000B60410925D0288E190E020E40FB6F8948D
:103A5000A895809360000FBE2093600083B7817F9C
:103A6000846083BF83B7816083BF7894889583B770
:103A70008E7F83BF0FB6F894A8958091600088610F
:103A800080936000109260000FBE08950895CF9358
:103A90000E94141D0E9416070E94461DC0E08C2F34
:103AA0000E94F106892B31F4CF5FC630C1F780E068
:103AB000CF91089581E0FCCF08950C945C1D0E9485
:103AC000B1150E9490110E94B6040C945D1D1F92C6
:103AD0001FB61F9211248F939F93AF93BF93809132
:103AE0005D02811113C08091B1029091B202A09148
:103AF000B302B091B4024196A11DB11D8093B102F1
:103B00009093B202A093B302B093B402BF91AF916D
:103B10009F918F911F901FBE1F90189582E084BDCA
:103B200093E095BD9AEF97BD80936E0008952FB7EF
:103B3000F8948091B1029091B202A091B302B09139
:103B4000B4022FBF08952FB7F8946091B10270911D
:103B5000B2028091B3029091B4022FBF08959C01EC
:103B60004FB7F8948091B1029091B202A091B30244
:103B7000B091B4024FBF821B930B089578941F92AB
:103B80001FB61F9211248F939F93AF93BF93809181
:103B9000B1029091B202A091B302B091B402019629
:103BA000A11DB11D8093B1029093B202A093B30204
:103BB000B093B402BF91AF919F918F911F901FBEA0
:103BC0001F90189587E797E7909301088093000866
:103BD00088E19AE00FB6F894A895809360000FBE34
:103BE00090936000FFCF90935D0180935C010895F6
:103BF00080916602089508950895CF93DF93EC01B4
:103C000081E08093E9008FEF9091E800815095FD6D
:103C100006C095ED9A95F1F700008111F5CF8091DE
:103C2000E80085FF14C050E040E068E070E0CE019D
:103C30000E94A21F8091E8008E778093E80088E0C0
:103C4000FE01AEE5B2E001900D928A95E1F7DF91B9
:103C5000CF91089508958091B802811109C00E9402
:103C600032210E948F218091E20084608093E200E3
:103C700008951092B802089508950895089542E0B5
:103C800061EC81E00C94AE208091BB02833009F49A
:103C90005FC030F48130C1F1823009F49BC00895D7
:103CA0008A3009F487C08B3009F46DC0893009F07F
:103CB0004EC08091BA02813209F049C08091BE02A3
:103CC0009091BF02892B09F042C08091E800877F64
:103CD0008093E8008091E80082FF35C09091F30066
:103CE0008091F200029729F48091F1008B7F81305E
:103CF00021F48091F100809366028091E8008B7737
:103D00008093E8000C94E2208091BA02813AF9F4A1
:103D10008091E800877F8093E8008091BE029091B7
:103D2000BF02892B61F468E08EE592E070E00E94AA
:103D3000F11F8091E8008B778093E800089560E0A0
:103D400090E080E0F3CF8091B9028111C3CF089554
:103D50008091BA02813AD9F78091BE029091BF0258
:103D6000892BA9F78091E800877F8093E8008091F4
:103D7000E80080FFFCCF809123018093F1008091C7
:103D8000E8008E77BDCF8091BA02813201F7809131
:103D9000BE029091BF02892BD1F68091E800877F07
:103DA0008093E8000E94E2208091BC02809323016E
:103DB0000C94B1158091BA02813249F68091E800E5
:103DC000877F8093E8000E94E2208091BD0280936B
:103DD000670208958091BA02813A09F0B8CF8091C4
:103DE000E800877F8093E8008091E80080FFFCCFA7
:103DF00080916702C2CF84B7877F84BF0FB6F894E3
:103E0000A8958091600088618093600010926000A6
:103E10000FBE80E890E00FB6F89480936100909315
:103E200061000FBE0E94F4110E9432210E948F2176
:103E30008091E20084608093E20078940E941824CC
:103E40000E94081289E191E00E948B118091B902D1
:103E5000853099F00E9410120E940412F7CF0E9440
:103E6000181D8091B702882341F00E94471D8823C6
:103E700021F00E948C1F0E94B1158091B9028530FB
:103E800071F30E945F1DE6CF0C94461F292F332744
:103E900023303105C9F058F42130310599F1223031
:103EA0003105A9F190E080E030E020E01DC0213232
:103EB000310509F122323105A9F780E490E022EBC7
:103EC00034E0672B79F710C099278130910581F094
:103ED000009729F0029731F7E6E4F4E002C0EAE740
:103EE000F4E0849190E09F01FA01318320830895EA
:103EF000E2E6F4E0F6CF89E090E020E934E0672BD9
:103F000089F6F2CF82E190E020EA34E0EDCF82E260
:103F100090E02EE734E0E8CF80E189BD82E189BD01
:103F200009B400FEFDCF8091D8008F7D8093D8002A
:103F30008091E00082608093E0008091E00081FD4C
:103F4000FCCF0895AF92BF92CF92DF92FF920F9372
:103F50001F93CF93DF936C01EB018A010E94012133
:103F6000F82E811123C00115110539F0F801808167
:103F70009181C81BD90BC80ED91EB12CA12C20973A
:103F8000A9F08091E80085FD22C08091E8008E773D
:103F90008093E80001151105A1F0F801808191815D
:103FA000A80EB91EB182A08285E0F82E8F2DDF9178
:103FB000CF911F910F91FF90DF90CF90BF90AF9066
:103FC00008950E9401218823D1F2F82EEFCFF60147
:103FD00081916F018093F1002197FFEFAF1ABF0A23
:103FE000CECFFC018091C0029091C1028617970745
:103FF000A0F06115710529F49091E8009E779093E7
:10400000E80090E06115710551F4911108C08091AC
:10401000E80082FF34C080E00895BC01F2CF8091B7
:10402000B9028823C1F18530C1F18091E80083FD98
:1040300030C08091E80082FDEACF8091E80080FFE7
:10404000E1CF8091F3002091F200382F61157105C6
:1040500019F02830310558F091E02830310509F089
:1040600090E02091E8002E772093E800CBCF81915B
:104070008093F100615071092F5F3F4FE7CF80912E
:10408000B902882341F0853041F08091E80083FF38
:10409000BECF81E0089582E0089583E00895FC0199
:1040A0008091C0029091C10286179707A0F0611518
:1040B000710529F48091E8008E778093E80090E004
:1040C0006115710551F4911108C08091E80082FFDB
:1040D00035C080E00895BC01F2CF8091B9028823F9
:1040E000C9F18530C9F18091E80083FD31C080912C
:1040F000E80082FDEACF8091E80080FFE1CF809167
:10410000F3002091F200382F6115710519F0283065
:10411000310558F091E02830310509F090E08091A8
:10412000E8008E778093E800CBCF84918093F100F4
:104130003196615071092F5F3F4FE6CF8091B902F0
:10414000882341F0853041F08091E80083FFBDCFA6
:1041500081E0089582E0089583E00895982F9730D4
:1041600028F08F708093E90081E008959093E90032
:10417000242F762F50E0981731F07091EC002091A9
:10418000ED005091F00021FD02C09F5FE8CF30911B
:10419000EB003E7F3093EB003091ED003D7F30939C
:1041A000ED003091EB0031603093EB007093EC0048
:1041B0002093ED005093F0002091EE0027FDE5CF15
:1041C00080E008958091BA0287FF13C08091E800D3
:1041D00082FF06C08091E8008B778093E80004C0DE
:1041E0008091B9028111F2CF08958091B90288239C
:1041F000D9F38091E80080FFF8CF8091E8008E77B6
:10420000ECCF2091E4003091E50095E6A9012091E2
:10421000EC00822F817020FF06C08091E80080FFB3
:1042200006C080E008952091E80022FD1AC0809128
:10423000B902882389F0853089F08091EB0085FDF3
:104240000FC02091E4003091E50042175307F9F2C6
:104250009150E1F684E0089582E0089583E00895A6
:1042600081E008950E94A0210E94A821E0EEF0E0E4
:10427000808181608083E8EDF0E080818F778083AA
:1042800019BCA7EDB0E08C918E7F8C9380818F7EDE
:1042900080831092B80208950F931F93CF93DF93FA
:1042A0000E94A0210E94A821C8EDD0E088818F77CC
:1042B000888388818068888388818F7D888319BC02
:1042C0001092B9021092B5021092B7021092B60283
:1042D00000EE10E0F80180818B7F8083888181600F
:1042E000888342E060E080E00E94AE20E1EEF0E0F2
:1042F00080818E7F8083E2EEF0E080818160808328
:10430000808188608083F80180818E7F80838881AE
:1043100080618883DF91CF911F910F910895E8ED1F
:10432000F0E080818F7E8083E7EDF0E08081816026
:10433000808384E082BF81E08093B8020C944C219A
:10434000E8EDF0E080818E7F80831092E200089596
:104350001092DA001092E10008951F920F920FB6AA
:104360000F9211242F933F934F935F936F937F93FB
:104370008F939F93AF93BF93EF93FF938091E1004F
:1043800082FF0BC08091E20082FF07C08091E100B4
:104390008B7F8093E1000E9417248091DA0080FFD8
:1043A00019C08091D80080FF15C08091DA008E7FFF
:1043B0008093DA008091D90080FF96C080E189BDAA
:1043C00082E189BD09B400FEFDCF81E08093B9028E
:1043D0000E942B1E8091E10080FF19C08091E200B5
:1043E00080FF15C08091E2008E7F8093E200809173
:1043F000E20080618093E2008091D8008062809327
:10440000D80019BC85E08093B9020E943D1E8091BE
:10441000E10084FF2BC08091E20084FF27C080E18F
:1044200089BD82E189BD89B5982F917080FFFBCF4E
:104430008091D8008F7D8093D8008091E1008F7E9D
:104440008093E1008091E2008F7E8093E200809172
:10445000E20081608093E2008091B502882309F434
:1044600049C084E08093B9020E943E1E8091E10021
:1044700083FF29C08091E20083FF25C08091E10085
:10448000877F8093E10082E08093B9021092B502A9
:104490008091E1008E7F8093E1008091E2008E7F29
:1044A0008093E2008091E20080618093E20042E02C
:1044B00060E080E00E94AE208091F00088608093F0
:1044C000F0000E943C1EFF91EF91BF91AF919F9130
:1044D0008F917F916F915F914F913F912F910F90AD
:1044E0000FBE0F901F90189519BC1092B9020E9430
:1044F000391E70CF8091E30087FD93E09093B9025D
:10450000B3CF1F920F920FB60F9211242F933F93A8
:104510004F935F936F937F938F939F93AF93BF93CB
:10452000CF93DF93EF93FF93D091E900DF708091F9
:10453000EC00C82FC17080FDC0E81092E9008091A6
:10454000F000877F8093F00078940E94C52210923B
:10455000E9008091F00088608093F000CD2BCF704F
:10456000C093E900FF91EF91DF91CF91BF91AF919F
:104570009F918F917F916F915F914F913F912F917B
:104580000F900FBE0F901F9018951F93CF93DF933E
:10459000CDB7DEB7AA970FB6F894DEBF0FBECDBF7A
:1045A0008AEB92E02091F100FC012193CF01F2E02F
:1045B000823C9F07B9F70E94441E8091E80083FF68
:1045C0001EC18091BA029091BB029A3008F017C1C7
:1045D000E92FF0E0E254FA4D0C949724803899F0DA
:1045E000823809F00CC18091BE028F70873008F0CC
:1045F00006C18093E9008091EB0085FB882780F954
:104600001092E90006C08091B6029091B702911114
:1046100082609091E800977F9093E8008093F1008A
:104620001092F1008091E8008E77E5C0882309F4AC
:10463000D3C0823009F0E3C08091BC028111D6C0A2
:104640008091BE028F702FEF280F263008F0D7C060
:104650008093E9002091EB0020FFC8C0933031F433
:104660008091EB0080628093EB00C0C09091EB00E2
:1046700090619093EB0021E030E001C0220F8A9519
:10468000EAF72093EA001092EA008091EB0088603C
:10469000EACF8111B4C01091BC021F778091E30072
:1046A0008078812B8093E3008091E800877F80935E
:1046B000E8000E94E2208091E80080FFFCCF80911A
:1046C000E30080688093E30082E0111183E080932F
:1046D000B90295C08058823008F091C08091BC0228
:1046E0009091BD028C3D23E09207A1F583E08A837F
:1046F0008AE289834FB7F894DE01139620E03EE00A
:1047000051E2E32FF0E050935700E49120FF03C003
:10471000E295EF703F5FEF708E2F90E0EA30C0F0CF
:10472000C7968D939D932F5F243159F74FBF80918A
:10473000E800877F8093E8006AE270E0CE0101968E
:104740000E94F11F8091E8008B778093E80057C0AA
:10475000C096E7CF6091BE027091BF02AE014F5F7D
:104760005F4F0E94441FBC01892B09F448C09091FF
:10477000E800977F9093E80089819A810E944F20FA
:10478000E1CF8038E1F58091E800877F8093E800F1
:104790008091B5028093F10045CF811130C0909196
:1047A000BC02923060F58091E800877F8093E8003A
:1047B0009093B5020E94E2208091B502882311F007
:1047C00084E005C08091E30087FDFACF81E080930B
:1047D000B9020E943F1E13C08091BC02813079F45F
:1047E00081E0933009F080E08093B7021092E900F5
:1047F0008091E800877F8093E8000E94E22080910A
:10480000E80083FF0AC08091E800877F8093E8007A
:104810008091EB0080628093EB00AA960FB6F8942B
:10482000DEBF0FBECDBFDF91CF911F9108950895D8
:10483000CF938091B9028823A1F0C091E900CF7095
:104840009091EC00892F817090FD80E8C82B109228
:10485000E9008091E80083FD0E94C522CF70C093DB
:10486000E900CF910895991B79E004C0991F96172C
:1048700008F0961B881F7A95C9F78095089587FBE5
:10488000082E062687FD819567FD61950E943324D9
:104890000EF4919507FC81950895AA1BBB1B51E16D
:1048A00007C0AA1FBB1FA617B70710F0A61BB70BA0
:1048B000881F991F5A95A9F780959095BC01CD0145
:1048C000089597FB072E16F4009407D077FD09D0C2
:1048D0000E944D2407FC05D03EF4909581959F4F92
:1048E0000895709561957F4F0895A1E21A2EAA1B35
:1048F000BB1BFD010DC0AA1FBB1FEE1FFF1FA21790
:10490000B307E407F50720F0A21BB30BE40BF50B8C
:10491000661F771F881F991F1A9469F76095709515
:10492000809590959B01AC01BD01CF010895EE0FDC
:10493000FF1F0590F491E02D09940E94A5243323D4
:1049400012F48A1B9B0B0C94B624A29FB001B39F58
:10495000C001A39F700D811D1124911DB29F700D88
:10496000811D1124911D08950E94A524B7FF08956B
:10497000821B930B08950E94A524A59F900DB49FC0
:10498000900DA49F800D911D11240895B7FF0C94E4
:10499000BB240E94BB24821B930B08958F929F928D
:1049A000AF92BF92CF92DF92EF92FF92CF93DF93BD
:1049B000EC01688179818A819B816115710581058E
:1049C000910521F464E279ED8BE597E02DE133EF79
:1049D00041E050E00E947F2549015A019B01AC0152
:1049E000A7EAB1E40E94BB246B017C01ACEEB4EFFA
:1049F000A50194010E94C924DC01CB018C0D9D1DF1
:104A0000AE1DBF1DB7FF03C00197A109B048888341
:104A10009983AA83BB839F77DF91CF91FF90EF901B
:104A2000DF90CF90BF90AF909F908F9008950E949D
:104A3000CE24089580E091E00E94CE240895B0E055
:104A4000A0E08093000190930101A0930201B09334
:104A500003010895FC014150504030F001900616CA
:104A6000D1F73197CF010895882799270895F999AB
:104A7000FECF92BD81BDF89A992780B50895A6E131
:104A8000B0E044E050E00C947125A8E1B0E042E0D1
:104A900050E00C947125262FF999FECF92BD81BD6F
:104AA000F89A019700B4021639F01FBA20BD0FB66C
:104AB000F894FA9AF99A0FBE08950396272F0E9448
:104AC0004C250E944B25252F0E944C25242F0C9409
:104AD0004C250196272F0E944C250C944B25DC0178
:104AE000CB01FC01F999FECF06C0F2BDE1BDF89AF9
:104AF000319600B40D9241505040B8F70895052EFC
:104B000097FB1EF400940E94962557FD07D00E9443
:104B1000752407FC03D04EF40C94962550954095CF
:104B2000309521953F4F4F4F5F4F08959095809559
:104B3000709561957F4F8F4F9F4F0895F894FFCFE9
:104B4000AD13AD1305140514DA13DA13DA13DA13FF
:104B50005714E314F214F2144E15DA13DA1357153E
:104B6000C015C015C915C915CB15C915C915C91565
:104B7000C015C015D015C915C915D015EE221623BC
:104B8000FF231623FF2349236A23FF23C123CD23B9
:104B900001000000010102000E000E0E01191A1B97
:104BA0001C1D1E1F2021225102F81DFD1DFB1DFC96
:104BB0001D2A1E01353497C6303766679392949646
:104BC0000001020202020606060909090909090F85
:104BD0000F0F0F0F0F151515181919191919191984
:0C4BE00019191923242525252525250059
:00000001FF
