:100000000C947F040C94C6040C94C6040C94C6048F
:100010000C94C6040C94C6040C94C6040C94C60438
:100020000C94C6040C94C6040C94B32B0C94872C2B
:100030000C943D260C94C6040C94C6040C94C6047F
:100040000C94C6040C94C6040C94C6040C94C60408
:100050000C94C6040C9494260C94C6040C94C60408
:100060000C94C6040C94C6040C94C6040C94C604E8
:100070000C94C6040C94C6040C94C6040C94C604D8
:100080000C94C6040C94C6040C94C6040C94C604C8
:100090000C94C6040C94C6040C94C6040C94C604B8
:1000A0000C94C6040C94C6040C94C6040A002025C3
:1000B0007520004368616E6765643A200029003A44
:1000C000003B003C003D003E003F0040004100423C
:1000D0000043004400450046004700003035001E44
:1000E000001F0020002100220023002400250026FC
:1000F0000027002D002E002A004A004B002B001480
:10010000001A000800150017001C0018000C00124F
:100110000013002F00300031004D004E0039000464
:10012000001600070009000A000B000D000E000F6A
:100130000033003400280049004C000000E10000BA
:10014000001D001B000600190005001100100036FC
:100150000037003800E500040052000000E000E332
:1001600000E20009000A000B002C000D000E00E662
:100170000000006500E400500051004F004445427B
:1001800055473A2064697361626C65642E0A0044C5
:10019000454255473A20656E61626C65642E0A00DF
:1001A0000A002530313662003A20002530325800EE
:1001B0000A722F63203031323334353637383941C3
:1001C00042434445460A00290A002575002F0025B0
:1001D00075005D28002564002000256400200025AE
:1001E000640020002564007C0025303258006D6FCB
:1001F0007573656B6579205B62746E7C78207920FD
:100200007620685D287265702F61636C293A205BE7
:10021000007267626C696768742074696D6572202A
:1002200064697361626C652E0A007267626C69674B
:1002300068742074696D657220656E61626C6564B6
:100240002E0A007267626C69676874207365742097
:10025000687376205B4E4F454550524F4D5D3A20B6
:1002600025752C25752C25750A007267626C6967E7
:1002700068742073657420687376205B454550521E
:100280004F4D5D3A2025752C25752C25750A007279
:1002900067626C69676874207261696E626F77204B
:1002A000736574206873763A2025642C25642C25A8
:1002B000642C25750A007267626C69676874206433
:1002C000697361626C65205B454550524F4D5D3AE4
:1002D000207267626C696768745F636F6E666967D6
:1002E0002E656E61626C65203D2025750A0072677F
:1002F000626C6967687420656E61626C65205B453D
:100300004550524F4D5D3A207267626C6967687460
:100310005F636F6E6669672E656E61626C65203D16
:100320002025750A007267626C6967687420746FB3
:1003300067676C65205B454550524F4D5D3A2072B2
:1003400067626C696768745F636F6E6669672E6564
:100350006E61626C65203D2025750A007267626CD3
:1003600069676874206D6F6465205B4E4F4545502A
:10037000524F4D5D3A2025750A007267626C6967BD
:100380006874206D6F6465205B454550524F4D5D2C
:100390003A2025750A007267626C696768745F6944
:1003A0006E6974207267626C696768745F636F6EF0
:1003B0006669672E6D6F6465203D20302E20577270
:1003C0006974652064656661756C742076616C750E
:1003D000657320746F20454550524F4D2E0A0072B0
:1003E00067626C696768745F696E697420656563CC
:1003F0006F6E666967206973206E6F7420656E6129
:10040000626C65642E0A007267626C696768745F6B
:10041000696E6974207374617274210A0072676274
:100420006C696768745F696E69742063616C6C6580
:10043000642E0A007267626C696768745F636F6E2E
:100440006669672E7370656564203D2025640A0027
:100450007267626C696768745F636F6E6669672E46
:1004600076616C203D2025640A007267626C6967C2
:1004700068745F636F6E6669672E736174203D20D8
:1004800025640A007267626C696768745F636F6EE7
:100490006669672E687565203D2025640A007267CD
:1004A000686C696768745F636F6E6669672E6D6FED
:1004B0006465203D2025640A007267626C69676884
:1004C000745F636F6E6669672E656E61626C65202E
:1004D0003D2025640A007267626C696768745F6317
:1004E0006F6E66696720454550524F4D3A0A001EAF
:1004F0000F0500047F3F1F643214643214783C1EE1
:100500001E140A052223252628292A2C2D2F3032B5
:10051000333536383A3B3D3E4042434547494A4CE5
:100520004E5051535557595A5C5E60626466686913
:100530006B6D6F71737577797B7D7F81838587891B
:100540008A8C8E90929496989A9C9E9FA1A3A5A720
:10055000A8AAACAEAFB1B3B4B6B8B9BBBCBEBFC14C
:10056000C2C3C5C6C7C9CACBCCCDCED0D1D2D2D3D7
:10057000D4D5D6D7D7D8D9D9DADADBDBDBDCDCDCEB
:10058000DCDCDDDDDDDDDCDCDCDCDCDBDBDBDADAAE
:10059000D9D9D8D7D7D6D5D4D3D2D2D1D0CECDCC25
:1005A000CBCAC9C7C6C5C3C2C1BFBEBCBBB9B8B63A
:1005B000B4B3B1AFAEACAAA8A7A5A3A19F9E9C9AC5
:1005C00098969492908E8C8A89878583817F7D7B93
:1005D00079777573716F6D6B6968666462605E5C74
:1005E0005A5957555351504E4C4A4947454342403A
:1005F0003E3D3B3A3836353332302F2D2C2A2928D0
:1006000026252322FFAA7F55400001010101010197
:1006100001010102020202020202020203030303B9
:100620000303030304040404040404050505050589
:100630000606060606070707070708080808090947
:1006400009090A0A0A0B0B0B0C0C0C0D0D0D0E0EF2
:100650000E0F0F0F10101111111212131314141585
:100660001516161717181819191A1A1B1B1C1D1DF9
:100670001E1E1F202021222223242425262627284F
:1006800029292A2B2C2D2D2E2F303132323334357F
:10069000363738393A3B3C3D3E3F40414243444582
:1006A000464748494A4C4D4E4F5051535455565861
:1006B000595A5B5D5E5F616264656668696B6C6D0B
:1006C0006F7072737577787A7B7D7E808283858781
:1006D000888A8C8E8F91939596989A9C9EA0A2A3BF
:1006E000A5A7A9ABADAFB1B3B5B7BABCBEC0C2C4C4
:1006F000C6C9CBCDCFD1D4D6D8DBDDDFE2E4E7E984
:10070000EBEEF0F3F5F8FAFDFF0A00253032582041
:10071000006B6579626F6172645F7265706F72748D
:100720003A20000A0025303258006B6579626F610B
:1007300072645F7365745F6C65643A20004F6E6528
:1007400073686F743A206163746976653A20256432
:100750000A005B735D004B6579626F6172642073A0
:10076000746172742E0A005B575D005B535D005B21
:10077000525D005B445D005B435D001A0374006BD7
:10078000006C005F006B006500790062006F006123
:1007900000720064000000160341006C00650078E0
:1007A000002000420069006E006F0073000000042A
:1007B00003090409025B00030100A0FA0904000018
:1007C0000103010100092111010001224000070578
:1007D000810308000A090401000103000000092147
:1007E00011010001227B000705820320000A090491
:1007F0000200020300000009211101000122220071
:1008000007058303200001070503032000011201EF
:1008100010010000000834127856000001020001A7
:100820000631FF0974A1010975150026FF00952006
:10083000750881020976150026FF0095207508913C
:1008400002C005010902A10185020901A1000509F3
:100850001901290815002501950875018102050176
:10086000093009311581257F9502750881060938FF
:100870001581257F950175088106050C0A3802153A
:1008800081257F950175088106C0C005010980A1F9
:1008900001850319012AB700150126B700950175D6
:1008A000108100C0050C0901A101850419012AA0CD
:1008B00002150126A002950175108100C0050109ED
:1008C00006A101050719E029E7150025019508751E
:1008D0000181029501750881010507190029FF159D
:1008E0000026FF00950675088100050819012905F5
:1008F000950575019102950175039101C0001124C0
:100900001FBECFEFDAE0DEBFCDBF04B603FE27C0C7
:1009100080910A0690910B06A0910C06B0910D06ED
:100920008730904BA740B04BD1F410920A0610923A
:100930000B0610920C0610920D0614BE84B7877F2A
:1009400084BF0FB6F894A895809160008861809369
:100950006000109260000FBEE0E0F8E3099511E03E
:10096000A0E0B1E0EAE9FFE502C005900D92A43DE8
:10097000B107D9F726E0A4EDB1E001C01D92AA307D
:10098000B207E1F70E94E8280C94A32F0C94000012
:10099000FF93EF93E091D401F091D501309709F0E6
:1009A0000995EF91FF910895FC018591803011F038
:1009B000EFDFFBCF0895FF27E0E230E247FF0CC0F6
:1009C000419597FF09C0EDE26095709580959095EF
:1009D000611D711D811D911D27FF02C0219530E30E
:1009E00050E2AA27660F771F881F991FAA1FA41716
:1009F00010F0A41B63955A95A9F7AA3008F0A95FD7
:100A0000A05DAF93F395611571058105910541F7DF
:100A1000ED3211F4EF93F395F21718F43F93F39539
:100A2000FBCF8F91B5DFFA95E1F70895E991F99140
:100A30008591803021F0853219F0AADFF9CF089531
:100A400020E0E89455915532C1F3503311F4689485
:100A500055915A3348F4505390F3220F022E220F2F
:100A6000220F200D250FF4CF0EF421958991999135
:100A7000533619F3533729F1533559F1BC018827FF
:100A80009927E8945C3621F489919991689455915D
:100A9000543639F446EF7EF077FF0DC08FEF9FEFAD
:100AA0000AC055374AE039F0583540E121F0523656
:100AB00042E009F00895FF93EF937DDFEF91FF91FE
:100AC000B7CFFF93EF93FC0181918030B9F360DFE2
:100AD000FBCFFF93EF9368DFF1CFDF93CF93CDB7D9
:100AE000DEB72596A3DFCF91DF910895CF93DF93F3
:100AF000819A8998809A8898ACE2B1E042E351E00B
:100B000061E070E08D91E82FE295EF70F0E021A1B7
:100B10008F70EB0102C0CC0FDD1F8A95E2F7CE018A
:100B2000922F982B91A392A18095892382A34A1793
:100B30005B0741F7DF91CF9108950E947605ACE203
:100B4000B1E041E050E08D91E82FE295EF70F0E0E8
:100B500021A18F70BA0102C0660F771F8A95E2F754
:100B6000CB01922F982B91A392A18095892382A3E8
:100B700071E0A233B70739F7A2E3B1E061E070E0BA
:100B80008D91E82FE295EF70F0E021A18F70AB011D
:100B900001C0440F8A95EAF7842F8095282321A36A
:100BA00092A1982392A382A1842B82A381E0A833EF
:100BB000B80731F7EAEAF4E0A6EBB4E086EB94E09C
:100BC000119211921D921D928E179F07C9F786E010
:100BD0000E94920A0C9408078F929F92AF92BF9244
:100BE000CF92DF92EF92FF920F931F93CF93DF93F9
:100BF000F12CE12CC0E080E0CC24C394D12C30E077
:100C000020E090E0AC01022E02C0559547950A9471
:100C1000E2F740FF12C0F901E45DFE4F4081E42F8E
:100C2000E295EF70F0E052A14F70B60101C0660F7F
:100C30004A95EAF7452F462B42A32F5F3F4F2630B8
:100C4000310501F7BE2CA7E0AE1508F48BC0899AD8
:100C50000E94680AA6010E2C02C0440F551F0A9478
:100C6000E2F7BA01609570950AEA14E092E3892EE2
:100C700091E0992EF801D0E021913191D401AD900D
:100C80004D018A2D82958F7090E0DC0190968C91B9
:100C900090E0BA2DBF7002C095958795BA95E2F79E
:100CA00080FD62C0C901842B952B2817390739F0C4
:100CB0009F0122503109D9018D939C93D1E0B4E07A
:100CC000E63BFB07C9F60E9476050E946A0ACD2B17
:100CD00081E08B0DEFE0EE16F104D1F5CC2301F1AC
:100CE00083EB90E00E94D4048EEAE82E80E0F82E98
:100CF000D8018C9111969C910E5F1F4F9F938F93FB
:100D0000FF92EF920E946D050F900F900F900F9041
:100D1000B4E0063B1B0761F78CEA90E00E94D40424
:100D20002C2F46E066EB74E08AEA94E00E94930A76
:100D30000E940C078C2FDF91CF911F910F91FF9094
:100D4000EF90DF90CF90BF90AF909F908F900895DD
:100D5000883020F0880F880F880F88739FEFE91A7A
:100D6000F90A4DCF889A74CFC901862397239DCF66
:100D700081E0089581E008950C94BA0608950C94DA
:100D8000BE061F93CF93DF9300D000D00F92CDB754
:100D9000DEB749835A836B8330910F0489819A812E
:100DA00031111DC06623B9F02223A9F00E945F23F0
:100DB000182F682F89819A810E940C2369817A817A
:100DC000812F0F900F900F900F900F90DF91CF9188
:100DD0001F910C94C3070E943823182FEFCF0E9455
:100DE0005F2369817A81EDCFFC01262F40815181FB
:100DF0006281738184810C94C106CF93DF93EC01EF
:100E000060E00E94F406BE01DF91CF910C94BF0612
:100E10000E94EA090C940F0A0C94120A08950E9489
:100E2000761E0E940E072FEF84E39CE02150804045
:100E30009040E1F700C000000C94B8260F931F9378
:100E4000CF93DF938C0161E00E94F406EC01B801BE
:100E50000E94BC068823F1F1B801CE010E94DB1785
:100E60008823C1F1B801CE010E942D18882391F189
:100E7000B801CE010E945019882361F1B801CE015A
:100E80000E947616882331F1F8018281882361F06F
:100E9000CF3DFCE5DF07B1F170F4C115ECE5DE07ED
:100EA000B9F0C130DC45E1F0C801DF91CF911F916D
:100EB0000F910C94B806CC358DE5D80749F1CD35A6
:100EC000DC0719F1CB35DD4579F70E942224ECCF00
:100ED0000E940F0780E0DF91CF911F910F9108953D
:100EE00090919904892F8E7F90FF8160809399045F
:100EF00080FF05C08FE891E00E94D404EBCF8DE71E
:100F000091E0FACF0E949025E5CF0E941924CCCF22
:100F10000E942524C9CF829590E09C01220F331FA7
:100F2000220F331F2C7C9595879595958795837314
:100F3000282B30E0C901880F991F8A7A35952795AB
:100F40002575822B0895CF93DF93D92F0E948B07AD
:100F5000C82F8D2F0E948B079C2FDF91CF91089572
:100F600008950C94B00781E008950C94B307CF93D3
:100F7000C82F0E94B1078C2FCF910C94B50790E039
:100F800080E008950895E72FF0E096E0899FE00D56
:100F9000F11D112484E0EE0FFF1F8A95E1F7E60FA3
:100FA000F11DEE0FFF1FE354FF4F859194910895BB
:100FB000FC01EE0FFF1FE056FE4F859194910895BE
:100FC000CF93DF930E94C3070E94F508EC018115BF
:100FD00020E5920708F042C0811530E4930708F03D
:100FE000BDC0883E910528F5803E910508F09DC062
:100FF000883A910588F4853A910508F08FC08130D0
:10100000910509F492C0009709F48FC0049708F085
:101010008CC0D0E0C0E089C08F3B910508F489C046
:10102000805C9109C03CD105A0F30E94D807EC0177
:101030007CC08115904250F4C11581E0D80708F0BA
:1010400074C0CD3ED10528F3D0656FC0C11590E3C3
:10105000D90708F079C0CE019F70E7CF811525E54B
:10106000920758F5811534E5930708F0A6C081155D
:1010700042E5940750F4C11581E5D80708F471C022
:10108000DC2FCC27C16FD06A50C0982F96959695CB
:101090009E0123703327C115D34508F07FC0C1E0FE
:1010A000D0E002C0CC0FDD1F2A95E2F720E2929F2C
:1010B000C0011124C82BD92B6FC0C11589E5D807F1
:1010C000A8F4C11598E5D90708F07CC0C11526E53C
:1010D000D20708F09ECF8C2F0E948C09C82FD0E039
:1010E000DC2FCC27CC27DF71D0621FC0C1153AE5B9
:1010F000D30708F46CC0CE0190568115904208F0D9
:1011000088CF8D2F8F710E948C0990E0982F8827AF
:1011100088279F719C012C2BE901E6CFC55AD0E0AE
:10112000CA59DE4FC881D0E0D064CE01DF91CF91A3
:101130000895C85AD0E0CC0FDD1FC85CDE4F09907F
:10114000D881C02DD464F1CFCE019927D3FF03C03D
:10115000EC01D86CEACFEC01D06CE7CFDF70D06A3D
:10116000E4CFCE01E4E096958795EA95E1F78370A8
:101170002C2F26952695237090E2299F900111240B
:10118000382B8C2F8370C1E0D0E002C0CC0FDD1F64
:101190008A95E2F7C22BD32BDC68C7CFC1E0D0E041
:1011A00002C0CC0FDD1F2A95E2F730E2939FC00109
:1011B0001124C82BD92BDA68B8CFD82FCC27C46F0D
:1011C000D06AB3CFDC2FCC27C06FD06AAECF8C2FC4
:1011D0008F700E948C0934E0D695C7953A95E1F757
:1011E000CF709C2FEC01D069A0CF82389105B1F16E
:1011F000B0F48133910509F475C048F48932910542
:1012000009F469C08A32910509F473C008958533E1
:10121000910509F459C08933910501F10895833E80
:101220009105A9F138F4803E9105F9F0823E9105CF
:1012300049F10895863E9105A9F1873E9105C9F1CE
:10124000843E910519F52091A90421FF1FC08091CA
:10125000A80484FD14C087EE90E008952091A804AE
:101260002370A1F080EE90E008952091A80420FD65
:1012700047C03091A90430FF09C024FF44C090E06A
:1012800080E004C02091A80422FDF7CF08952091AA
:10129000A80422FD3BC03091A90430FDE3CF24FF18
:1012A000F5CFEDCF2091A80423FFF0CF24FDE7CFA9
:1012B000D2CF2091A80423FD2CC03091A90431FF86
:1012C000EECF84EE90E008952091A80425FFDECFB4
:1012D00089E290E008952091A80425FFD7CF85E307
:1012E00090E008952091A80426FFD0CF8AE290E0F4
:1012F00008952091A80426FFC9CF81E390E00895C6
:1013000089E390E0089583EE90E0089582EE90E006
:10131000089586EE90E008959091A80492FF06C08B
:10132000282F28712830F9F4877F846093FF06C046
:10133000282F28712831F1F4877E84612091A90437
:1013400020FF06C0382F38713830D9F4877F81608C
:1013500021FF06C0282F28712831D1F4877E8161B2
:1013600094FD877E0895282F24712430F9F68B7F11
:101370008860DCCF282F2471243101F78B7E8861AF
:10138000DDCF382F3171313019F78E7F8860E0CF93
:10139000282F2171213121F78E7E8861E1CF0C94B5
:1013A000E5240E947F0A2FEF86E791E021508040DC
:1013B0009040E1F700C000000E947F0A80E00E9498
:1013C000140A80FF04C00E94CF090C94B826089527
:1013D0000C94D1090E94EB24811102C00E94902537
:1013E0000E94F624809399040E94FE249093A904FD
:1013F0008093A8040E94E8090E94FA24682F70E0F4
:1014000090E080E00E940E22609184047091850437
:1014100080918604909187040C94482208950C943E
:101420000E0A08950C94110AE82FF0E0EE0FFF1F4A
:10143000EA54FB4F808191810895CF92DF92EF9221
:10144000FF920F931F93CF93DF9380EB91E00E9465
:10145000D40486EBE82E84E0F82ED0E0C0E09BEACE
:10146000C92E91E0D92E02EA11E0DF93CF93DF92EB
:10147000CF920E946D0588EA91E00E94D404F701A2
:10148000819191917F010E94A3079F938F931F9356
:101490000F930E946D0580EA91E00E94D40421968A
:1014A0008DB79EB708960FB6F8949EBF0FBE8DBF3E
:1014B000C630D105D1F6DF91CF911F910F91FF90EA
:1014C000EF90DF90CF90089580EA8A95F1F7089524
:1014D00000C008950C94640A0E949D05EAEAF4E0B5
:1014E000A6EBB4E0119211921D921D9284E0E63BAE
:1014F000F807C1F786E00E94920A0C940807CF9380
:101500008AEA94E00E94EC05C82F282F46E066EB9B
:1015100074E08AEA94E00E94930A0E940C078C2FE0
:10152000CF9108950895FF920F931F93CF93DF9368
:10153000F82E092F162FD72FC42F222349F081E030
:101540008093D8010E946D269093D7018093D60195
:101550008091D8018823A1F08091D6019091D70184
:101560000E948526069760F0EF2DF02FA12FBD2F4A
:1015700090E080E0D0E08C179D0744F01092D801F5
:10158000DF91CF911F910F91FF900895219131919B
:101590002D933D930196EFCF8091DF0180FF12C024
:1015A0006091090185E0689FB001112475956795E8
:1015B0007595679560387105A8F561157105A1F1FC
:1015C000862F089581FF09C06091090185E0689F19
:1015D000B001112475956795EDCF6091090182FDE9
:1015E0000AC08091DE018823D1F0909108016091BA
:1015F0000901891728F085E0689FB0011124DACF2E
:10160000869FB001112485E0869F9001879F300D51
:101610001124692F70E0C9010E94662ECBCF65E0CE
:1016200070E0CECF8FE7089581E008958091DF01CB
:1016300080FF0CC06091050170E075956795759508
:1016400067956115710549F1862F089581FF06C0E0
:101650006091050170E075956795F3CF6091050184
:1016600082FD0BC09091DD019923A1F060910401EE
:1016700080910501961738F0682F70E06038710589
:1016800000F38FE70895899FC001112470E00E9444
:10169000662EF4CF61E070E0D7CF81E008958D3EF3
:1016A00031F40E94CC0A81958093E30108958E3E27
:1016B00019F40E94CC0AF8CF8F3E31F40E94CC0A74
:1016C00081958093E2010895803F19F40E94CC0A2D
:1016D000F8CF893F29F40E94160B8093E401089506
:1016E0008A3F21F40E94160B8195F7CF8B3F31F48E
:1016F0000E94160B81958093E50108958C3F19F4A3
:101700000E94160BF8CF9FE0980F983070F4815F1D
:10171000990B21E030E001C0220F8A95EAF7809111
:10172000E101822B8093E10108958D3F31F4809196
:10173000DF0181608093DF0108958E3F21F4809165
:10174000DF018260F7CF8F3FB9F78091DF018460BE
:10175000F1CF4091E2018D3E59F48091E30187FF82
:101760000DC01092E30141110BC01092DE0108C0C0
:101770008E3E81F48091E30118169CF3442381F09E
:101780008091E4019091E501892B09F05AC01092F3
:10179000DD0108958F3E49F447FFF0CF1092E2013A
:1017A0008091E3018111ECCFE0CF803F19F4141652
:1017B000ACF3E4CF9091E401893F29F41916F4F6D3
:1017C0001092E401DBCF8A3F19F497FFD7CFF8CF0F
:1017D0009091E5018B3F29F497FFD0CF1092E5015E
:1017E000CDCF8C3F19F41916CCF3C8CF9FE0980FDA
:1017F000983090F4815F990B21E030E0B90102C08C
:10180000660F771F8A95E2F7CB0180959091E101F1
:1018100089238093E101B2CF8D3F31F48091DF01C4
:101820008E7F8093DF01AACF8E3F21F48091DF016C
:101830008D7FF7CF8F3F09F0A1CF8091DF018B7FA4
:10184000F0CF08958091990483FF7EC08EEE91E0E1
:101850000E94D4048091E1011F928F9389EE91E060
:101860009F938F930E946D0587EE91E00E94D404B0
:101870008091E201282F082E000C330B3F938F93A9
:1018800084EE91E09F938F930E946D0582EE91E02C
:101890000E94D4048091E301282F082E000C330B02
:1018A0003F938F938FED91E09F938F930E946D05EF
:1018B0008DED91E00E94D4048091E401282F082E40
:1018C000000C330B3F938F938AED91E09F938F939E
:1018D0000E946D0588ED91E00E94D4048091E5019D
:1018E000282F082E000C330B3F938F9385ED91E04A
:1018F0009F938F930E946D0582ED91E00E94D40426
:101900008091DE011F928F938FEC91E09F938F93D4
:101910000E946D058DEC91E00E94D4048091DF015E
:101920001F928F938AEC91E09F938F930E946D0595
:1019300087EC91E00E94D4048DB79EB74C960FB609
:10194000F8949EBF0FBE8DBF0E946D269C019091A2
:10195000E2018091E301982B21F03093DC01209388
:10196000DB019091E4018091E501982B21F0309307
:10197000DA012093D90180EE91E00C94D719EF920F
:10198000FF920F931F93CF93DF9300D000D000D02E
:10199000CDB7DEB786E0E0EEF1E0DE011196019012
:1019A0000D928A95E1F7E090E201F090E301009159
:1019B000E4011091E5011092E2011092E30110920E
:1019C000E4011092E5018E2D8F2991F08091DB01C9
:1019D0009091DC010E948526AC019091DE01992353
:1019E00009F43FC080910A018417150608F447C026
:1019F000802F812B91F08091D9019091DA010E9482
:101A00008526AC019091DD01992309F477C080917E
:101A100006018417150608F47FC08091E2019091B9
:101A2000E301892B9091E401892B9091E501892BA9
:101A300011F00E94220C86E0FE013196A0EEB1E08A
:101A400001900D928A95E1F726960FB6F894DEBFC5
:101A50000FBECDBFDF91CF911F910F91FF90EF90FF
:101A6000089520910B018AE0289F900111242417EA
:101A7000350708F0BDCF9F5F9093DE0102C09F3F06
:101A8000D1F7EE2059F00E94CC0A9FEF1E140CF4FF
:101A900091E0899F802D11248093E201FF2059F06D
:101AA0000E94CC0A9FEF1F140CF491E0899F802DB7
:101AB00011248093E3013091E201332309F498CF9C
:101AC0002091E301222309F493CF45EB3403C001B5
:101AD0001124992359F09093E20145EB24039001DE
:101AE0001124332339F03093E30182CF81E08093D6
:101AF000E201F3CF81E08093E3017ACF20910701E7
:101B00008AE0289F900111242417350708F085CF1B
:101B10009F5F9093DD0102C09F3FD1F7002359F0F2
:101B20000E94160B9FEF10160CF491E0899F802DF8
:101B300011248093E401112359F00E94160B9FEFAA
:101B400011160CF491E0899F802D11248093E501FA
:101B50003091E401332309F460CF2091E501222381
:101B600009F45BCF45EB3403C0011124992359F0EC
:101B70009093E40145EB240390011124332339F0C1
:101B80003093E5014ACF81E08093E401F3CF81E017
:101B90008093E50142CF86E0E0EEF1E0DF011D92A7
:101BA0008A95E9F71092DE011092DD011092DF01B3
:101BB0000895EF92FF920F931F93CF93DF93EB0162
:101BC000E82FD11110C0442321F0F0E0E75FF94F76
:101BD000E4916E2F7E2F8E2FDF91CF911F910F9169
:101BE000FF90EF9008950D2F10E0282F30E0442350
:101BF00029F0275F394FF901249130E0F6E0CF9FBB
:101C0000C0011124EFEFF0E0BF010E94522EAB01A2
:101C10008C2F90E0880F991FA5E5A49FB001A59F88
:101C2000700D1124861B970B982F990F980FBF01E9
:101C3000601B710B629FD001639FB00D729FB00D4E
:101C400011248B2F9D9FB0011124672F7727EF015F
:101C5000C61BD70BBE01629FE001639FD00D729F30
:101C6000D00D11247F01E91AF108E09EB001E19E38
:101C7000700DF09E700D1124672F7727E61BF70B70
:101C8000E29F8001E39F100DF29F100D1124E12FC0
:101C9000722F4230510599F048F44115510569F011
:101CA0004130510581F0EB2F8D2F07C04430510595
:101CB00069F080F046305105B1F76E2F8DCFE22FDD
:101CC0007B2F812FFACFE22F7D2FF7CFEB2F822FA3
:101CD000712FF3CF7B2F822FED2FEFCF41E00C94AC
:101CE000D90D08950C946E0ECF93DF93762FE901F2
:101CF000682F842F0E94720E798368838A83DF9114
:101D0000CF910895413808F040E80C94740E80910A
:101D1000C204982F9E7F61F4817082608093C20418
:101D20008091C504813818F080E88093C504089537
:101D30008635B0F381708465F1CF88E090E00C9433
:101D4000442FCF92DF92EF92FF926B017C010E94B1
:101D5000870EB701A60188E090E0FF90EF90DF903A
:101D6000CF900C94622FE2ECF4E083E08083118248
:101D70008FEF828380E88383148260817181828106
:101D800093810C94A10E8091990480FF76C086ED1A
:101D900094E09F938F930E946D05809199040F901A
:101DA0000F9080FF6AC08091C20481701F928F9350
:101DB00089EB94E09F938F930E946D058091990425
:101DC0000F900F900F900F9080FF57C08091C2042A
:101DD00086951F928F938EE994E09F938F930E9434
:101DE0006D05809199040F900F900F900F9080FFD8
:101DF00044C08091C3041F928F9384E894E09F9322
:101E00008F930E946D05809199040F900F900F9011
:101E10000F9080FF32C08091C4041F928F938AE696
:101E200094E09F938F930E946D05809199040F9089
:101E30000F900F900F9080FF20C08091C5041F92DB
:101E40008F9380E594E09F938F930E946D0580911E
:101E500099040F900F900F900F9080FF0EC080910B
:101E6000C6041F928F9384E394E09F938F930E9404
:101E70006D050F900F900F900F9008958091C20400
:101E800080FF02C08695089580E008959091C60471
:101E9000933018F49F5F9093C604882351F06091AB
:101EA000C2047091C3048091C4049091C5040C9441
:101EB000A10E089581E00C94460F9091C6049923D9
:101EC00019F091509093C604882351F06091C20498
:101ED0007091C3048091C4049091C5040C94A10E28
:101EE000089581E00C945D0F70E00C9443176091AD
:101EF00010018091C20480FF0AC080910F0123E08D
:101F0000829FC001112489539B4F0C94740F8091C0
:101F100011019091120123E0829FF0011124E953F5
:101F2000FB4F891750F71182108212828F5F339610
:101F3000F8CF9091C20490FF14C0909111012091AC
:101F4000120133E0939FF0011124E953FB4F9217E4
:101F500010F00C94770F8183608342839F5F3396E8
:101F6000F6CF0895CF93DF9300D00F92CDB7DEB7B1
:101F70009091C20490FF0AC09E012F5F3F4F0E94C4
:101F8000820E4B8169818A810E94990F0F900F9078
:101F90000F90DF91CF910895CF93DF93EC01EC8107
:101FA000F0E0EC5FFA4F4491E2ECF4E06281818171
:101FB0000E94B20F8C818F5F8C83DF91CF91089547
:101FC000CF93DF93EC01E2ECF4E0438162818C81FA
:101FD0000E94B20F8C818F5F8C83DF91CF91089527
:101FE0000F931F93CF93DF9300D00F92CDB7DEB73F
:101FF0008C018091E60181110AC09E012F5F3F4F45
:1020000040E86FEF0E94820E8A818093E601F8011A
:102010006481613069F08091E60140E0662361F0FF
:1020200040E0623011F44091E60180E060E004C0DD
:102030006091E60140E080E00E94990FF801848100
:1020400090E0019663E070E00E94662E84830F901A
:102050000F900F90DF91CF911F910F9108954F92A4
:102060005F926F927F928F929F92AF92BF92CF9228
:10207000DF92EF92FF920F931F93CF93DF9300D0E5
:102080000F92CDB7DEB7182FD62E042F722E909157
:10209000C20490FF46C0E92FE695AE2FB0E0A759E5
:1020A000BE4F8C918093EE039E7F923009F04DC01D
:1020B0009E012F5F3F4F812F0E94820E4B816981CD
:1020C0008A810E94990F1093C304D092C404009394
:1020D000C504772009F49CC06091C2047091C304C8
:1020E0008091C4049091C5040E94A10E809199042E
:1020F00080FF17C08091C5041F928F938091C40404
:102100001F928F938091C3041F928F938AE692E06F
:102110009F938F930E946D050FB6F894DEBF0FBE9C
:10212000CDBF0F900F900F90DF91CF911F910F9126
:10213000FF90EF90DF90CF90BF90AF909F908F90E7
:102140007F906F905F904F900895823019F40091C6
:10215000C504B9CF863019F41091C304B4CF8930C7
:10216000D9F3893109F0AFCFE9518E2F8170682EF4
:102170008E2F80958170C82EE695F0E0EC5FF94FC8
:10218000E590F490412CFF249FE8A92E92E0B92E0F
:1021900060911301461618F00E94770F94CF842C9B
:1021A000912C8E9CC0018F9C900D9E9C900D1124B3
:1021B00070E00E94522E512E611028C0560E809160
:1021C000990480FF11C0FF92EF921F92CF921F924D
:1021D0005F921F924F92BF92AF920E946D050FB611
:1021E000F894DEBF0FBECDBF20911101820E911C6D
:1021F0009401220F331F280D391D29533B4F402FC7
:102200006D2D852D0E94820E4394C2CF561AD7CFD2
:102210008091990480FF85CF1F920F931F92DF92C8
:102220001F921F9383E492E073CFE2ECF4E091817C
:10223000282F4381628188E0890F0C942F1081E060
:102240000C941511E2ECF4E09181282F4381628116
:1022500088EF890F0C942F1081E00C942211E2EC8E
:10226000F4E0628128E0620F08F46FEF282F4381C9
:1022700081810C942F1081E00C942F11E2ECF4E09A
:10228000628128E0621B08F460E0282F438181818D
:102290000C942F1081E00C943E11E2ECF4E04381A9
:1022A00028E0420F08F44FEF282F628181810C94BF
:1022B0002F1081E00C944D11E2ECF4E0438128E012
:1022C000421B08F440E0282F628181810C942F107A
:1022D00081E00C945C1120E00C942F10EF92FF929F
:1022E0001F93CF93DF93EC0110E0EE24EA94F12CDE
:1022F00060911301161770F00E94770F9A818C81FC
:1023000090FF27C08F5F8C83DF91CF911F91FF904B
:10231000EF90089520911101422F410F5527551F2D
:10232000CA019A01220F331F280F391F29533B4F2F
:1023300070E0C7010E94662E962F8C814091C504E3
:102340006091C404199F800D11240E94820E1F5FAA
:10235000CFCF8150D8CFAF92BF92CF92DF92EF9282
:10236000FF920F931F93CF93DF93FC0182810FEFB6
:1023700080FF01E010E046E6A42E809113011817BB
:10238000C8F00E94770F8091E801013009F055C034
:10239000811102C08091130181508093E801DF9187
:1023A000CF911F910F91FF90EF90DF90CF90BF9052
:1023B000AF900895C0911101C12ED12CCC0DDD2D0F
:1023C000D11DCE01880F991FC80FD91FC953DB4FEC
:1023D000198218821A8234E0E32EF12CB12C8091FC
:1023E000E8018B0D87361CF16A2D0E94442E892F3F
:1023F000082E000C990BC816D90691F48091C504DB
:102400008E9DA0018F9D500D112455954795559592
:1024100047959E016091C4048091C3040E94820E7E
:10242000B00EF1E0EF1AF108D1F61F5FA6CF87FFDB
:10243000DFCF90911301890FDBCF90E0019660917F
:10244000130170E00E94662EA8CF0F931F93CF93C5
:10245000DF93809111019091120123E0829FF0019E
:102460001124E953FB4F891740F1C0E0D3E060919C
:102470001301C61740F10E94770F20910D01809142
:10248000E701820F8093E70190910E01920F9093E4
:102490000E01191654F4082E000C990B40911301EB
:1024A0004150550B841795071CF0219520930D0181
:1024B000DF91CF911F910F910895118210821282A6
:1024C0008F5F3396D0CF0C2F10E070E0C8010E94D0
:1024D000662E20911101820F482F50E02091E701D4
:1024E000022E000C330B02171307BCF020910E01D3
:1024F000022E000C330B201731077CF08D9F9001CA
:10250000112429533B4F4091C5046091C40480912C
:10251000C3040E94820ECF5FAACFFA01EE0FFF1F05
:10252000E40FF51FE953FB4F118210821282F3CFA3
:102530008F929F92AF92BF92CF92DF92EF92FF92D3
:102540000F931F93CF93DF93EC014C81042F10E086
:102550009801D8010E94AA2E9B01AC010E94C02EB6
:102560004B015C01E0E2F0E0E01BF10BA5E5B0E01F
:10257000AC019B010E94C02E6B017C019F01DF0119
:102580000E94A22E9B01AC010E94CB2E9B01AC01AC
:10259000280D391D4A1D5B1DC701B6010E947A2E08
:1025A000F22E822F90E039E23F1560F143E0249F44
:1025B0009001112435952795122F109500E085E59F
:1025C000E82EEF1880911301081758F10E94770F39
:1025D0009C8181E0992319F0903219F48FEF809358
:1025E0000C0180910C01890F8C83DF91CF911F9199
:1025F0000F91FF90EF90DF90CF90BF90AF909F90A2
:102600008F90089525E530E0B901681B790B9B0197
:10261000220F331F260F371F37FFCCCF2F5F3F4FBF
:10262000C9CF8E2D01FD8F2D20911101622F600FDA
:102630007727771F9B01220F331F260F371F295340
:102640003B4F412F6091C4040E94820E0F5FBACFAE
:102650000F931F93CF93DF93EC0110E000E0909174
:1026600013019017110609F06CF40E94770F8C810A
:1026700090E00196817099278C83DF91CF911F9113
:102680000F91089520911101A801420F511D9A0147
:10269000220F331F240F351F29533B4F4C8160916C
:1026A000C4048091C30496959017110651F04CF024
:1026B000442349F04091C5040E94820E0F5F1F4FD2
:1026C000CECF4423B9F340E0F7CF4F925F926F92A1
:1026D0007F928F929F92AF92BF92CF92DF92EF92B2
:1026E000FF920F931F93CF93DF93FC01628044808E
:1026F00081E08483E4E0F5E07490E3E8F5E0E491C0
:10270000812C75E0972EF2E0CF2EDD24D394AA24FD
:10271000AA94B12C55245A94E7190E2F10E08091F9
:102720001301881690F0DF91CF911F910F91FF90C8
:10273000EF90DF90CF90BF90AF909F908F907F9061
:102740006F905F904F900C94770FE82CF12C82E003
:10275000861568F09E9CF0019F9CF00D1124E751B6
:10276000FE4F8091C30480838091C4048183411013
:1027700023C09E9CF0019F9CF00D1124E751FE4F59
:102780001382128220911101C701820F911D9C01B9
:10279000220F331F280F391F29533B4F9E9CF001F6
:1027A0009F9CF00D1124E751FE4F42816181808191
:1027B0000E94820E8394B3CF9E9CE0019F9CD00D1B
:1027C0001124C751DE4F8B818823E9F081508B8320
:1027D000859DC00111246C8170E00E94522EFB0186
:1027E000FF27EC5FFA4F8491E82FE719E59DC001C0
:1027F0001124B8010E94522E8091C504689FB00137
:1028000011247A83BFCF0E941F2F2091C5042695E3
:1028100021582C9DA0012D9D500D1124452F552789
:10282000841795070CF0AECF82E0861588F40E94DD
:102830001F2FB5010E94662E88830E941F2F2091B2
:10284000C4042695622F70E00E94662E280F29830B
:102850009E9CF0019F9CF00D1124E751FE4F1282C7
:102860008091C504893C58F088EC9E9CF0019F9CA7
:10287000F00D1124E751FE4F8483838383CF84318D
:10288000A0F784E1F2CF6091C204669570E04BE05E
:1028900050E084E191E00E942F2F892B19F481E010
:1028A0008093EF030E946D269093E8038093E703E3
:1028B0008091990480FF08C08AE292E09F938F93F1
:1028C0000E946D050F900F9008951092EF03809174
:1028D000990480FF08C081E192E09F938F930E944A
:1028E0006D050F900F9008959091C20490FF54C011
:1028F000917081113BC092609093C2046623E9F10C
:102900006091C2047091C3048091C4049091C50485
:102910000E94A10E8091990480FF0FC08091C20493
:1029200086951F928F938AE793E09F938F930E94DF
:102930006D050F900F900F900F906091C2046695F7
:1029400070E04BE050E084E191E00E942F2F892B52
:1029500001F10E94651481E08093EA034091C5046F
:102960006091C4048091C3040C946B118B3210F0FD
:102970009465C2CF880F982BBFCF8091990480FFB8
:10298000DCCF8091C20486951F928F938CE593E0F3
:10299000CCCF0E944314DFCF0895682F9091C204DA
:1029A000969581E0890F8B3208F081E00C947414C5
:1029B00081E00C94CD14682F9091C20496958FEF0E
:1029C000890F09F48AE20C94741481E00C94DB14EE
:1029D00061E00C9474148091C20481608093C204FD
:1029E0008091990480FF0DC01F9281E08F938EEE3D
:1029F00092E09F938F930E946D050F900F900F9020
:102A00000F908091C20486950C94E81460E00C94B9
:102A100074148091ED03811160C08091990480FF4E
:102A200014C08DE194E09F938F930E946D05809177
:102A300099040F900F9080FF08C087E094E09F9367
:102A40008F930E946D050F900F900E94EB248111CF
:102A500010C08091990480FF08C08FED93E09F9390
:102A60008F930E946D050F900F900E9490250E94F9
:102A7000B30E0E949D0E6093C2047093C3048093B2
:102A8000C4049093C5046E7FC1F48091990480FFC3
:102A900008C086E993E09F938F930E946D050F9085
:102AA0000F900E94B30E0E949D0E6093C20470931B
:102AB000C3048093C4049093C5040E94870E0E94AF
:102AC000C30E1092EF038091C20480FF03C086956D
:102AD0000E94061581E08093ED0308958091C20461
:102AE0008E7F8093C2046091C2047091C304809170
:102AF000C4049091C5040E94A10E8091990480FFA6
:102B00000FC08091C20481701F928F9386EB92E078
:102B10009F938F930E946D050F900F900F900F90D1
:102B20000E9465142FEF80E792E021508040904092
:102B3000E1F700C000000C94770F8091990480FFAA
:102B400010C08091C204809581701F928F9385E29E
:102B500093E09F938F930E946D050F900F900F90BD
:102B60000F908091C20480FD0C946E150C94EB14B0
:102B70000F931F93CF93DF938091EF03882309F482
:102B800096C08091EE03E091C204E695E81BE093C5
:102B9000E903823091F5F0E0E050FB4FE491CE2F55
:102BA000D0E00CEC1FE08091EA03882361F01092E2
:102BB000EA030E946D269093E8038093E703109246
:102BC000EC031092EB030E946D26E091E703F09175
:102BD000E8038E1B9F0B8F3F9F4708F068C0EC0FE8
:102BE000FD1FF093E803E093E70387EE93E0F8011D
:102BF000DF91CF911F910F910994863049F4F0E055
:102C0000E350FB4FE491CE2FD0E000EE1FE0CBCF9E
:102C1000893051F4E695F0E0E650FB4FE491CE2F79
:102C2000D0E00EE611E1BFCF8F3051F4E695F0E031
:102C3000E950FB4FE491CE2FD0E00BEA11E1B3CF86
:102C4000853149F4F0E0EC50FB4FE491CE2FD0E019
:102C500005E212E1A8CFC8E2D0E008E912E188312C
:102C600009F4A1CF833239F4E2EFF4E0C591D491B5
:102C700000EF1FE098CFC4EFD1E008E213E1843207
:102C800009F491CFC0EDD7E001E71EE0853209F0ED
:102C90008ACF8E2F63E00E94382EE92FF0E0E151B9
:102CA000FB4FE491CE2FD0E005E613E17CCFDF911E
:102CB000CF911F910F910895FA01811101C0FB017D
:102CC0000994CF93DF93C82FD62F0E943E0F8C1705
:102CD00040F00E943E0F8D1720F4DF91CF910C94AD
:102CE000D8148C2FDF91CF910C94E8141F93CF93BD
:102CF000DF93EC01FB011281112309F4C2C00E9491
:102D000028248272CD3CFCE5DF0709F4A0C008F05E
:102D100044C0C73CECE5DE0709F485C0F0F4C43CD0
:102D20009CE5D90709F475C048F4C33CDC4509F4B7
:102D30006CC0812FDF91CF911F910895C53C9CE518
:102D4000D90709F46BC04CE251E16FE171E1C63C77
:102D5000DC4579F70E945C165AC0CA3CFCE5DF07E7
:102D600009F46BC068F4C83CECE5DE0709F460C008
:102D70004BE351E16AE471E1C93CDC4559F3D9CF39
:102D8000CB3C9CE5D90709F45DC041E75FE06AE50B
:102D90007FE0CC3CDC45F1F2CCCFC23DFCE5DF0767
:102DA00009F464C098F4CF3C9CE5D90709F458C0F5
:102DB00008F452C0C03DFCE5DF0709F454C0C13D32
:102DC000DC4509F0B6CF6EE089E01CC0C53D9CE54E
:102DD000D90709F451C058F4C33DFCE5DF0709F4F5
:102DE00048C0C43DDC4509F0A4CF88E136C0C63DEB
:102DF0009CE5D90709F443C06AE285E2CE35DD459A
:102E000009F097CF0E94611602C00E949D1510E044
:102E100090CF45EE54E168ED74E19CCF48ED54E16C
:102E200065EE74E197CF4FE151E16CE271E192CF31
:102E30004AE451E16BE371E18DCF48E651E169E588
:102E400071E188CF49E551E168E671E183CF4AE558
:102E50005FE061E77FE07ECF81E00E94E814D7CF9A
:102E600065E082E0CFCF68E086E0CCCF64E18FE020
:102E7000C9CF67E185E1C6CF62E289E1C3CF83E2D2
:102E8000ECCF11E056CF269A45B14F7B55B1506437
:102E9000EFB7F8949B01220F331F260F371F280F1F
:102EA000391F2817390741F4EFBF8FE594E00197E8
:102EB000F1F700C000000895DC016D91CD0178E0CC
:102EC00055B9000000C067FF45B9660F000000C09B
:102ED00000C000C045B900C07A9591F7E2CF0F93CA
:102EE0001F93CF93DF93C42FD22FFC0182818823BD
:102EF000C9F04093F2030E946D269093F1038093F2
:102F0000F00380E28C0F883008F050C0C77081E079
:102F100001C0880FCA95EAF7DF91CF911F910F91F9
:102F20000C94FD1B1091F203141335C08091F00333
:102F30009091F1030E948526883C910560F5C0E2DE
:102F4000CD0F1D17B9F080E2810F883040F4177063
:102F500081E001C0880F1A95EAF70E94041CC8306E
:102F600048F481E09D2F977001C0880F9A95EAF789
:102F70000E94FD1B802F0E94F51BC830B8F4D7704B
:102F800081E001C0880FDA95EAF7DF91CF911F91B8
:102F90000F910C94041C80E28C0F883038F4C770B9
:102FA00081E001C0880FCA95EAF7EFCFDF91CF919A
:102FB0001F910F9108950F939C01CB01243F4CE585
:102FC000340759F1A8F4293DFCE53F0701F12A3DFA
:102FD0004CE53407D1F1283D3C4591F406E221EE61
:102FE00041EE68ED7CE50E946F1780E00F91089537
:102FF000263FFCE53F07E9F0B0F0273F3C45F9F0FC
:10300000FC018281882339F11092F203EFCF07E2AD
:1030100025EE45EE69ED7CE5E6CF06E221EE40EED9
:1030200064EF7CE5E0CF07E225EE44EE65EF7CE55A
:10303000DACF06E221EE42EE66EF7CE5D4CF07E27E
:1030400025EE46EE67EF7CE5CECF08E221E045EEC7
:103050006AED7CE5C8CF81E0C9CFCF93DF93EC0167
:10306000FB018281882309F419C1C230FCE5DF0726
:10307000C0F1C6319CE5D90730F09E012B5F3C457D
:103080002930310570F50E94FE249093A9048093A5
:10309000A804C031ECE5DE0709F4CFC008F05BC03E
:1030A000C8308CE5D80709F4B6C088F5C430ECE523
:1030B000DE0709F4A8C0C0F4C2308CE5D80709F4D3
:1030C0009CC08091A8048260C330DC4509F498C09C
:1030D0008091A8049091A9040E940C250E94761E5C
:1030E00080E0DF91CF9108958091A8048061C6307F
:1030F000ECE5DE0709F484C08091A8048860C7303D
:10310000DC4508F47DC08091A804806279C0CC3091
:103110008CE5D80709F489C070F48091A8048C600C
:10312000CA30ECE5DE0709F46BC008F478C0809182
:10313000A8048E7F65C0CE308CE5D80709F479C02D
:103140008091A8048B7FCF30DC4508F459C0809172
:10315000A8048F7E55C0CC3FECE5DE0709F457C0CC
:1031600030F5C3318CE5D80709F46FC078F4C1316C
:10317000ECE5DE0709F465C0C231DC4509F0A8CFF3
:103180000E94761E8091A8048F773AC0C5318CE5E5
:10319000D80709F462C008F476C08091A904816060
:1031A000CB3FDC4509F094CF8093A90491CFC115A2
:1031B000FDE5DF0709F44DC088F48091A9048D7FF7
:1031C000CE3F9CE5D90781F38091A9048E7FCF3F44
:1031D000DC4550F38091A9048360E6CFC230FDE561
:1031E000DF0709F459C008F444C080E0C330DD456E
:1031F00009F06ECF0E9492256BCF8091A804816068
:103200008093A80465CF8091A8048460F9CF809151
:10321000A9048260C9CF8091A8048064F1CF0E9484
:10322000761E8091A8048068EBCF8091A8048D7FE2
:10323000E7CF8091A804877FE3CF8091A8048F7D9A
:10324000DFCF8091A8048F7BDBCF8091A804837FA0
:10325000D7CF8091A9048C7FA7CF8091A80482FB4F
:10326000992790F921E0922790FB82F990FB83F94E
:10327000C7CF8091A904982F909591708E7F892B4C
:1032800090FB81F991CF0E94761E9091A804892F1E
:1032900097FB87F98058B4CF81E0ACCF81E021CF94
:1032A000CF93DF93EB0186319C4511F50E942824D2
:1032B0009A81992399F08A7A91E009F490E09093A9
:1032C000F303811109C089E20E94CF230E94782470
:1032D00080E0DF91CF91089585E3F6CF8091F303ED
:1032E000811104C089E20E94D623F0CF85E3FBCF91
:1032F00081E0EFCF9093F9038093F8030895E09174
:10330000F803F091F903309721F00190F081E02D5E
:10331000099480E00895EF92FF920F931F93CF934B
:10332000DF938C01E091F803F091F9033097C1F13C
:103330000280F381E02D09958091990482FF30C0CD
:1033400080FF04C081E197E00E94D404D0E0C0E097
:103350008BE0E82E87E0F82E8091990480FF0EC064
:10336000F801EC0FFD1F80811F928F93FF92EF9267
:103370000E946D050F900F900F900F902196C8300E
:10338000D10551F78091990480FF0AC089E097E048
:10339000DF91CF911F910F91FF90EF900C94D40487
:1033A000DF91CF911F910F91FF90EF900895E091E1
:1033B000F803F091F903309739F022E0DC012C9307
:1033C0000480F581E02D099408952091F603309151
:1033D000F7032817390771F09093F7038093F603EA
:1033E000E091F803F091F903309721F00680F7811E
:1033F000E02D099408952091F4033091F5032817E6
:10340000390771F09093F5038093F403E091F8038A
:10341000F091F903309721F00084F185E02D0994B3
:1034200008950E94792660930B0470930C04809396
:103430000D0490930E046093070470930804809326
:10344000090490930A04089585B7806885BF85B7FD
:10345000806885BF0895089508950C942B1A0895E7
:103460000C942F1A0E94241A86E898E20E94C9261A
:103470000E942C1A0C942D1A81E008950C943C1A89
:10348000089508950E94401A0C94411A0E946426DF
:103490000E946C0A0E9409150C94301ACF93C82F11
:1034A0008091990482FF1EC080FF1CC08AE297E0D1
:1034B0000E94D4048091990480FF14C01F92CF937E
:1034C00085E297E09F938F930E946D058091990408
:1034D0000F900F900F900F9080FF04C083E297E051
:1034E0000E94D4048C2FCF910C94B7078F929F9297
:1034F000AF92BF92CF92DF92EF92FF920F931F9302
:10350000CF93DF93CDB7DEB72A970FB6F894DEBF1F
:103510000FBECDBF0E947F0A81110E94111A5BEF7E
:10352000852E53E0952E10E000E0A02E802F0E9403
:10353000140A6C01F401E190F1904F01E816F906CC
:1035400009F45EC08091990481FD0E941D0AC701A3
:103550008C259D25B12CEE24E394F12C9C012E2189
:103560003F21232B09F446C00E943E1A8823A9F06C
:10357000BE82AF82CE20DF2081E0CD2809F480E03A
:1035800088870E946D268160782F9A8789874E816F
:103590005F8168858A850E942A1B000F111FF80130
:1035A000E550FC4F80819181E826F926F182E08286
:1035B0000E94B8150E94BF0C0E947F199091FA03D7
:1035C0008917A9F10E947F198093FA032A960FB6F2
:1035D000F894DEBF0FBECDBFDF91CF911F910F9149
:1035E000FF90EF90DF90CF90BF90AF909F908F9023
:1035F0000C944E1AB394EE0CFF1CF0E1BF12AECF48
:103600000F5F1F4F0630110509F08FCF8FEF8983B1
:103610008A831B820E946D268160782F9D838C8314
:1036200049815A816B818D810E942A1BC1CF2A96C4
:103630000FB6F894DEBF0FBECDBFDF91CF911F91C3
:103640000F91FF90EF90DF90CF90BF90AF909F9041
:103650008F900895DF92EF92FF920F931F93CF9375
:10366000DF93CDB7DEB72B970FB6F894DEBF0FBE52
:10367000CDBF7A878B87F42E052F162FE72ED82EF5
:1036800061110E9448241E821D827E2DEC82DD8203
:103690004F2D502F612F8D2D9E812B960FB6F894B4
:1036A000DEBF0FBECDBFDF91CF911F910F91FF9075
:1036B000EF90DF900C94EC20FC01808191810C94C0
:1036C000A123CF93C82F882309F447C08CEF8C0F18
:1036D000813AA0F46C2F80911F01909120010E94EB
:1036E000A925882329F08C2F0E94D6230E947824B4
:1036F0008C2F0E94CF23CF910C94782480E28C0FE2
:10370000883048F4C77081E001C0880FCA95EAF795
:103710000E942B24F0CFEBE5EC0FE33040F4F0E017
:10372000EE53FE4F808190E0CF910C94E519E8E5CF
:10373000EC0FE73150F4F0E0EE0FFF1FEC56FE4FB8
:1037400080819181CF910C94FB19CD3E30F08C2F6C
:103750000E944F0BCF910C94220CCF910895882397
:1037600061F19CEF980F913A20F40E94D6230C94BB
:10377000782490E2980F983050F4877091E001C05F
:10378000990F8A95EAF7892F0E943124F0CF9BE5A3
:10379000980F933020F490E080E00C94E51998E5C0
:1037A000980F973120F490E080E00C94FB198D3E47
:1037B00020F00E94A90B0C94220C08951F93CF9324
:1037C000DF93182FEB010E94611B209731F4812FAA
:1037D000DF91CF911F910C94AF1B8FE99FE0019770
:1037E000F1F700C000002197F0CF70E060E089336E
:1037F00011F460E570E00C94DE1B882321F00E9438
:103800002B240C9478240895882321F00E943124DD
:103810000C9478240895BF92CF92DF92EF92FF929A
:103820000F931F93CF93DF936C01D62FC72FFC010B
:103830001281058102950F700E94ED23E82E8823E6
:10384000A1F0E12E112389F08C2F807F803429F0A4
:1038500080E28D0FE12C883040F082E00E94C92484
:103860000E94ED2391E0E82EE926BC2EB2949FE061
:10387000B922EB2DF0E0EB55F04D0C949C2E0C2F63
:103880000F70C07F11F00295007F1123A9F0002373
:1038900059F080E28D0F883010F0D11109C0802FCF
:1038A0000E942B240E9478248D2F0E94611B14C03B
:1038B000802F0E943B24F6CF8D2F0E94AF1B002348
:1038C00059F080E28D0F883010F0D1112CC0802F7C
:1038D0000E9431240E9478242B2D2850330B243051
:1038E000310520F40E947F190E94B707EE2009F4E9
:1038F0009EC10E94E92380FD9AC1F60112820E94B6
:10390000E3230E947022C6010E94381E0E94E32316
:10391000DF91CF911F910F91FF90EF90DF90CF90AB
:10392000BF900C949122802F0E944124D3CFFC2F72
:10393000FF70FF2EC07FC03219F0F29480EFF822A2
:10394000DD2369F0D13049F1112391F1002351F1C8
:10395000F601858180FFA8CF8F70858323C0112356
:1039600081F0011106C00E945B248F290E94FD1B7B
:10397000B3CF0130C1F70E945B248F290E946124DC
:10398000ABCF011106C00E946E248F2D0E94041C33
:10399000A3CF013009F4A0CFF6CF112329F00630D0
:1039A00008F09ACF8F2DE2CF053008F095CFEDCFFC
:1039B000002359F3D93349F4FFEF27EE33E0F150F8
:1039C00020403040E1F700C000008D2F0E94AF1B67
:1039D00083CF8C2F86958695837069F0813009F0AE
:1039E0007BCF8D2F9C2F9370111102C090E080E04F
:1039F0000E94FB1971CF8D2F9C2F9370111102C063
:103A000090E080E00E94E51967CF8D2F112329F007
:103A10000E944F0B0E94220C5FCF0E94A90BFACF8D
:103A20008C2F837009F041C0111156CF4D2F429554
:103A300046954770440F440F0D2F0F7010E030E093
:103A400020E0042E04C0000F111F221F331F0A9410
:103A5000D2F760E070E0CB01D4FF0FC06FE070E000
:103A600080E090E004C0660F771F881F991F4A9579
:103A7000D2F76095709580959095C695C695C37060
:103A8000602B712B822B932BC23049F058F4C1303C
:103A900019F00E94222220CF0E9410221DCF0E94E6
:103AA00034221ACF0E940E2217CF8695112311F0CF
:103AB0008C2F8170882309F40FCF4D2F42954695A6
:103AC0004770440F440F0D2F0F7010E030E020E0DE
:103AD000042E04C0000F111F221F331F0A94D2F7B7
:103AE00060E070E0CB01D4FF0FC06FE070E080E0D9
:103AF00090E004C0660F771F881F991F4A95D2F780
:103B00006095709580959095C695C695C370602B0D
:103B1000712B822B932BC23049F058F4C13019F02D
:103B20000E94E722D9CE0E94D522D6CE0E94F92249
:103B3000D3CE0E944A22D0CECF70112329F08C2FF1
:103B40000E9470228D2F12CF8D2F0E94041C8C2F6B
:103B50000E949122C1CED23F89F160F4D03FC9F0DA
:103B6000D13F29F1112309F442C001119DCE8C2FC0
:103B70008F7121C0D33F39F1D43FA1F7112369F1EF
:103B8000CF718C2F0E94702263E08C2F0E94AE2494
:103B9000A3CE112341F0053008F09ECE8C2F8F71FB
:103BA0000E94B42299CE063008F096CEF7CF8C2F23
:103BB0008F71112369F20E9470228ECE8C2F8F712B
:103BC0001123C9F3C5CF112329F08C2F8F710E94C7
:103BD0005B2282CE0E9456227FCE81E00E94C924C1
:103BE000023008F479CE82E00E94C92475CE002309
:103BF00059F0D93309F0E9CE8FEF97EEE3E0815029
:103C00009040E040E1F7DFCE8C2F8F71A1CF4C2F99
:103C10004F706D2FC6010E94BF070E9486215CCEA7
:103C20004C2F4F706D2FC6010E94C20755CEDF91F9
:103C3000CF911F910F91FF90EF90DF90CF90BF90A9
:103C400008950F931F93CF93DF93EC0168817981DF
:103C50008A810E94AB238C010E940B230E940D22BB
:103C6000B801CE01DF91CF911F910F910C940B1CE5
:103C7000CF93DF93EC018B819C81892B29F0888184
:103C8000998189238F3F59F4DF91CF910895CE0117
:103C90000E94211ECE01DF91CF910C94FD06CE0132
:103CA0000E941E078111F3CF0E94ED23882361F348
:103CB0008A81882349F382E0DF91CF910C94C92453
:103CC00090E080E00E94E51990E080E00E94FB19FE
:103CD0000E9448240E9458240E9478240E94CB0D00
:103CE0000C94220C0E94DD230C94601E0E94382448
:103CF0000C94721EE92FE295EF70E250EE3070F4F2
:103D0000F0E0EB54F04D0C949C2E803F19F020F421
:103D1000883E20F481E00895843FE1F380E0089537
:103D2000883EC0F3813FD1F7F5CF93FB882780F918
:103D300008950E94A1230C947A1ECF93DF9300D0A4
:103D400000D00F92CDB7DEB70F900F900F900F906D
:103D50000F90DF91CF910895CF93DF9300D000D0E3
:103D600000D0CDB7DEB726960FB6F894DEBF0FBEF3
:103D7000CDBFDF91CF9108951F93CF93DF93C09173
:103D8000100416E0809111048C1304C0DF91CF91D0
:103D90001F910895D0E01C9FF0011D9FF00D11248C
:103DA000EE5EFB4F408151816281738184819581F8
:103DB0000E94AC1E2196C770E5CF409142045091FD
:103DC00043046091440470914504809146049091AD
:103DD00047040C94AC1E1F93CF93DF93809147044C
:103DE000807FA9F480914404882389F08091100495
:103DF000C09111046091420470914304A091450464
:103E0000B0914604D62FD72316E0C81304C0DF9123
:103E1000CF911F91089590E0109711F0DF3F19F4B2
:103E200001968770F2CF189F9001199F300D1124D1
:103E3000F901EE5EFB4F41814713F2CF40814613FB
:103E4000EFCF42814111ECCF438154814A1B5B0B80
:103E5000483C510528F7809147048F70806180931A
:103E60004704F901E95EFB4F80818F708061808398
:103E700082E494E00E94381EDF91CF911F910C9450
:103E8000BC1EAF92BF92CF92DF92EF92FF920F9340
:103E90001F93CF93DF93CDB7DEB761970FB6F8943A
:103EA000DEBF0FBECDBF8C0185E0F801DE011D969F
:103EB00001900D928A95E1F7F80140815181E280ED
:103EC00082E4C82E84E0D82E6091450470914604A7
:103ED0006115710509F461C1909142042091430478
:103EE000892F82238F3F09F458C1A380B480F090BA
:103EF0004404F501E61BF70BFF2009F4FCC0809198
:103F00004704382F307FE83CF10508F0B2C031118A
:103F100079C0FE2C251323C0941321C0E1101FC0CB
:103F20008F708061809347040E94DD1EC6010E944D
:103F3000381E80914704F80185838F2D61960FB656
:103F4000F894DEBF0FBECDBFDF91CF911F910F91CF
:103F5000FF90EF90DF90CF90BF90AF900895AB2887
:103F600029F0842F85238F3F09F033C180E0F82F9B
:103F7000F170DF2E80FF3CC080911004209111046D
:103F800036E0821315C04D875E878D859E850E9421
:103F9000A123292F22952F702230F0F0243018F51C
:103FA0009F70F1F0F8019581907FD1F4D12C1EC063
:103FB00090E0389FF001399FF00D1124EE5EFB4F29
:103FC0006181651306C06081641303C062816E1154
:103FD0000FC001968770D5CF9F7011F0882331F301
:103FE000805E883018F3C8010E94381EFD2CA5CFD2
:103FF000EE2009F4A2CF80914704816080934704AA
:10400000F12C9BCF251306C0941304C0F801EE20B9
:1040100009F48DC04D875E878D859E850E94991E0F
:10402000882319F1EE2009F180914704803270F065
:10403000209142043091430438872F831986BB8630
:10404000AA868C87CE0107960E94381E86E0F8016A
:10405000A2E4B4E001900D928A95E1F70E94EB1E74
:104060000E94DD1EFF24F39468CFC8010E94381E11
:10407000F9CF311113C07A2DB98AA88A6E2D89899A
:104080000E949D1E82E494E00E94381E86E0F601A4
:1040900011928A95E9F70E94DD1EB2CF25130FC059
:1040A00094130DC0E1100BC0F8018583C8010E9474
:1040B000381E86E0F60111928A95E9F73ECF4D87CA
:1040C0005E878D859E850E94991E882371F2EE2061
:1040D00061F280914704803208F4B8CF2091420405
:1040E000309143043A8329831B82BD82AC828E8344
:1040F000CE010196A9CFE83CF10508F041C0FE2CA5
:10410000EE2009F4B2CF25132AC0941328C0809161
:10411000470480FD1BC0982F907FC1F0F801858374
:10412000903F31F0982F907F905F8F70892B85831F
:10413000C8010E94381E86E0F801A2E4B4E00190B4
:104140000D928A95E1F70E94DD1EF7CE86E0F80118
:10415000A2E4B4E001900D928A95E1F7EECE4D878E
:104160005E878D859E850E94991E81116FCF8091FB
:104170004704816080934704C8010E94381EDDCE49
:104180007A2DB98AA88A6E2D89890E949D1E86E0A3
:10419000F60111928A95E9F7D6CFEE2009F465CFA2
:1041A0004D875E878D859E850E94991EF82E8823F7
:1041B00009F45BCF86E0F801A2E4B4E001900D922F
:1041C0008A95E1F782E494E00E945C1B0E94EB1E5A
:1041D000BACF81E08E25CBCE1F93CF93DF93CDB79F
:1041E000DEB72C970FB6F894DEBF0FBECDBF4F835E
:1041F000588769877A878B879C87CE0107960E94AC
:10420000411F882369F08A859B85892B39F04F816E
:104210005885842F85238F3F09F071C016E05FC059
:1042200086E0FE013796DE01119601900D928A9587
:10423000E1F78A859B85892B89F38F81988589236E
:104240008F3F61F32091110430E0C901019687701E
:104250009927409110044817190671F40E94761EA0
:10426000109211041092100486E0E2E4F4E0DF0101
:104270001D928A95E9F7D2CF96E0929FD001939F45
:10428000B00D1124AE5EBB4FFE01319601900D9230
:104290009A95E1F7809311040E94BC1EBFCF819FC5
:1042A000C00111248E5E9B4F0E94411F8823E9F0BC
:1042B000E09110041E9FF0011124EE5EFB4F40813F
:1042C000518162817381848195810E94AC1E8091AD
:1042D000100490E0019687709927809310048091D4
:1042E0001004909111048913DACF2C960FB6F8942C
:1042F000DEBF0FBECDBFDF91CF911F9108956985BD
:104300007A858B859C850E94AC1E88CFEF92FF92A8
:104310000F931F93CF93DF938C01892B81F0F12CA6
:10432000EE24E394E8012196F8018491843770F437
:10433000843008F05FC08130B1F08230A1F1DF91AC
:10434000CF911F910F91FF90EF900895853709F459
:104350004CC008F43DC09CE7980F903780F78F77EA
:104360000E94AF1B49C00E5F1F4FFE01849190E277
:10437000980F983060F48770FE2D01C0FF0F8A956A
:10438000EAF78F2F0E944B240E94782402C00E94DB
:10439000611B8F2D815030F2EFE9FFE03197F1F78B
:1043A00000C00000F7CF0E5F1F4FFE01849190E226
:1043B000980F983050F48770FE2D01C0FF0F8A953A
:1043C000EAF78F2F0E945124DFCF0E94AF1BE1CF6D
:1043D0000E5F1F4FFE01C491C150D8F28FE99FE0DC
:1043E0000197F1F700C00000F7CF0E5F1F4FFE01ED
:1043F000F490CFCF0E94611B8E01CBCF08950C9417
:10440000FE210E94FF2160938804709389048093A9
:104410008A0490938B040C94601E08950C940122DE
:104420000F931F93009188041091890420918A04AE
:1044300030918B04602B712B822B932B1F910F914A
:104440000C9401220F931F9300918804109189040A
:1044500020918A0430918B0460237123822393235B
:104460001F910F910C9401220F931F9300918804C8
:104470001091890420918A0430918B046027712760
:10448000822793271F910F910C9401220C94FE21F7
:104490000C9446220E944822609384047093850401
:1044A00080938604909387040C94601E60E070E013
:1044B000CB010C944A220F931F9341E050E060E03F
:1044C00070E08A019B0104C0000F111F221F331FDF
:1044D0008A95D2F7C901B8011F910F910C944A2215
:1044E0000F931F9341E050E060E070E004C0440F80
:1044F000551F661F771F8A95D2F78091840490918B
:104500008504A0918604B09187048A019B01082B41
:10451000192B2A2B3B2BC901B8011F910F910C9429
:104520004A220F931F9341E050E060E070E004C026
:10453000440F551F661F771F8A95D2F7CB01BA012A
:1045400060957095809590950091840410918504F4
:104550002091860430918704602371238223932362
:104560001F910F910C944A220F931F9341E050E04A
:1045700060E070E004C0440F551F661F771F8A95E6
:10458000D2F78091840490918504A0918604B09123
:1045900087048A019B01082719272A273B27C9017D
:1045A000B8011F910F910C944A220F931F93009111
:1045B0008404109185042091860430918704602B37
:1045C000712B822B932B1F910F910C944A220F93E6
:1045D0001F930091840410918504209186043091EA
:1045E000870460237123822393231F910F910C94DE
:1045F0004A220F931F930091840410918504209107
:1046000086043091870460277127822793271F91A2
:104610000F910C944A2208959295907F890F982FBC
:10462000977041E001C0440F9A95EAF78695869508
:10463000869595E0899FF0011124E85BFB4F30E0FF
:1046400020E070E05191DF011197CB01022E02C0F2
:10465000969587950A94E2F7817081958527842342
:1046600085278C932F5F3F4F2530310559F70895EB
:104670009295907F890F982F97708695869586954D
:1046800025E0829FF0011124E85BFB4F50E040E001
:1046900080E0219130E0092E02C0369527950A94DA
:1046A000E2F721703327042E01C0220F0A94EAF7A3
:1046B000822B4F5F5F4F4530510559F70895BF92E8
:1046C000CF92DF92EF92FF920F931F93CF93DF93DE
:1046D0008C01C0908404D0908504E0908604F09012
:1046E00087048091880490918904A0918A04B091F4
:1046F0008B04C82AD92AEA2AFB2ACFE1D0E0BC2EB3
:10470000D701C6010C2E04C0B695A795979587953D
:104710000A94D2F780FD0EC0219788F7B12C8B2D1B
:10472000DF91CF911F910F91FF90EF90DF90CF908D
:10473000BF900895B8018C2F0E94E007019761F3A4
:10474000EECFCF93DF93EC010E945F23BE01DF9198
:10475000CF910C94E0071F93CF93DF93EB019091DF
:104760000F04992331F0CB01DF91CF911F910C946D
:10477000A123882379F0CB010E945F23182F682F93
:10478000CE010E940C23BE01812FDF91CF911F919A
:104790000C94E007CB010E943823182FF4CF682F28
:1047A00080911F01909120010C94DF25682F80914A
:1047B0001F01909120010C94E12580911F0190919F
:1047C00020010C94E32580918C0485958595859531
:1047D000089580918C048770089590918C0497704F
:1047E00081E009F480E00895CF93C82F8091A90457
:1047F00082FB992790F99C17D1F0C0FB82F9809336
:10480000A9048091A8049091A9040E940C2580918C
:10481000990480FF0CC01F92CF938DE397E09F9384
:104820008F930E946D050F900F900F900F90CF9176
:1048300008958091A90482FB882780F991E0892757
:104840000C94F42381E00C94F42380E00C94F42382
:1048500080919804089590919804892B80939804EE
:1048600008958095909198049823909398040895C2
:1048700010929804089590919704892B809397043F
:1048800008958095909197049823909397040895A4
:1048900010929704089590919604892B8093960422
:1048A0000895809590919604982390939604089586
:1048B00010929604089580918D04089508950C94A3
:1048C0005E249091A90492FD08C090918D049817E0
:1048D00021F080938D040C945F24089580918D04C1
:1048E000882329F010928D0480E00C945F240895B1
:1048F000E0911F01F0912001809198048083E09164
:104900001F01F0912001808190919704892B808371
:10491000E0911F01F0912001808190919604892BF4
:10492000808390918D04992381F0E0911F01F09193
:1049300020018081892B808380911F01909120012B
:104940000E94972581110E946E2480911F019091F1
:1049500020010C948B1908950C94AB249091A90418
:1049600092FD10C098E0899F90011124622B609302
:104970008C040E94702280918C0485958595859584
:104980000C94AC240C94702210928C0480E00C9453
:10499000AC2490918C048095892380938C04282FDB
:1049A000277039F4282F082E000C330B92171306AA
:1049B00021F49091A90492FF07C08595859585956E
:1049C0000E9491220C94C42408956FEF7FEF90E031
:1049D00080E00C946E2F90E080E00E944A2F21E04E
:1049E0008A3E9E4F09F020E0822F089582E090E0F9
:1049F0000C943C2F83E090E00C943C2FCF9384E008
:104A000090E00E943C2FC82F82E290E00E943C2F51
:104A1000982F8C2FCF910895CF93C92F682F84E0C2
:104A200090E00E94502F6C2F82E290E0CF910C9486
:104A3000502FAB01BC018FE090E00C94622FAB01D2
:104A4000BC0183E190E00C94622F60E070E0CB0148
:104A50000C941F2560E070E0CB010E9419250C9496
:104A600025256AEE7EEF90E080E00E946E2F60E0E8
:104A700082E090E00E94502F60E083E090E00E948E
:104A8000502F109288041092890410928A04109278
:104A90008B0460E084E090E00E94502F60E082E2AE
:104AA00090E00E94502F60E085E090E00E94502F3F
:104AB00060E086E090E00E94502F6FEF87E090E08A
:104AC0000E94502F40E050E0BA0188E090E00E9440
:104AD000622F60E08DE090E00E94502F40E050E0B7
:104AE000BA0188E190E00E94622F60E087E190E0E7
:104AF0000E94502F40E050E0BA018CE190E00E940B
:104B0000622F70E060E080E290E00E946E2F40E053
:104B100050E0BA0188E190E00E94622F0C942A25AF
:104B20000C943125682F8EE090E00C94502F9C015E
:104B30002E5F3F4FAC01485F5F4F80E02417350781
:104B400009F40895F90191919F019923B9F38F5FB9
:104B5000F5CF662349F0FC0132960896219126177D
:104B600029F0E817F907D1F780E0089581E008956A
:104B70009C01FC0132969FEF80E04191461751F075
:104B80009F3F19F4411101C0982F8F5F8630A9F71C
:104B90009F3F09F40895290F311D97FD3A95F901BA
:104BA00062830895FC01329608962191261303C072
:104BB000DF0111971C92E817F907B9F708950C94D3
:104BC000B8250C94D225029626E0FC0111922A9574
:104BD000E9F70895089508950C94EB258091010656
:104BE000843049F10E94EC2580E00E94B7071092C2
:104BF0009A0488E190E020E40FB6F894A895809399
:104C000060000FBE2093600083B7817F846083BF04
:104C100083B7816083BF7894889583B78E7F83BF85
:104C20000FB6F894A8958091600088618093600029
:104C3000109260000FBE08950895CF930E94EA2558
:104C40000E947F0A0E941C26C0E08C2F0E94140A3A
:104C5000892B31F4CF5FC630C1F780E0CF91089542
:104C600081E0FCCF08950C9432260E94761E0E94AB
:104C70007F190E94B7070C9433261F921FB61F920C
:104C800011248F939F93AF93BF9380919A048111C6
:104C900013C08091F9059091FA05A091FB05B091A0
:104CA000FC054196A11DB11D8093F9059093FA056D
:104CB000A093FB05B093FC05BF91AF919F918F919D
:104CC0001F901FBE1F90189582E084BD93E095BD94
:104CD0009AEF97BD80936E0008952FB7F894809156
:104CE000F9059091FA05A091FB05B091FC052FBF45
:104CF00008952FB7F8946091F9057091FA058091A5
:104D0000FB059091FC052FBF08959C014FB7F894C7
:104D10008091F9059091FA05A091FB05B091FC05F1
:104D20004FBF821B930B089578941F921FB61F925A
:104D300011248F939F93AF93BF938091F905909126
:104D4000FA05A091FB05B091FC050196A11DB11DCE
:104D50008093F9059093FA05A093FB05B093FC05A9
:104D6000BF91AF919F918F911F901FBE1F9018957B
:104D700087E797E7909301088093000888E19AE01D
:104D80000FB6F894A895809360000FBE90936000D2
:104D9000FFCF9093D5018093D40108958091A6040C
:104DA0000895CF93DF9300D00F92CDB7DEB79091E7
:104DB0000106943019F589837B836A8382E08093AE
:104DC000E9008FEF9091E800815095FD06C095EDC8
:104DD0009A95F1F700008111F5CF8091E80085FFE9
:104DE0000DC050E040E063E070E0CE0101960E940B
:104DF000A8298091E8008E778093E8000F900F90AB
:104E00000F90DF91CF910895BC0184E00C94D126DE
:104E1000BC0183E00C94D1269C0182E08093E900E0
:104E20009FEF8091E800915085FD06C085ED8A9541
:104E3000F1F700009111F5CF8091E80085FF0CC0DB
:104E400050E040E066E070E0C9010E94A82980912E
:104E5000E8008E778093E8000895CF93DF93EC010C
:104E600081E08093E9008FEF9091E800815095FDFB
:104E700006C095ED9A95F1F700008111F5CF80916C
:104E8000E80085FF14C050E040E068E070E0CE012B
:104E90000E94A8298091E8008E778093E80088E03E
:104EA000FE01AEE9B4E001900D928A95E1F7DF9141
:104EB000CF91089587E797E00E94D404809100067F
:104EC000811109C00E94382B0E94952B8091E2002D
:104ED00084608093E200089583E797E00E94D40401
:104EE0001092000608958FE697E00C94D4048BE6A8
:104EF00097E00C94D40487E697E00C94D4042091B6
:104F00009C042F5F822F62E30E94382E992319F0B0
:104F100020939C04089510929C0480919D04882302
:104F2000F1F0809101068430C1F49091E9009F7006
:104F30002091EC00822F817020FD80E8892B93E086
:104F40009093E9009091EB0090FF04C09091EE00E7
:104F500097FD08C08F708093E90010929D0408951A
:104F60001092F1009091E80095FDFACF9091E80041
:104F700090FFF0CF9091E8009E779093E800EACF01
:104F800042E061EC81E00E94B42A42E261EC82E0FE
:104F90000E94B42A42E261EC83E00C94B42A80912E
:104FA0000306833009F45FC030F48130C1F18230F0
:104FB00009F49BC008958A3009F487C08B3009F446
:104FC0006DC0893009F04EC080910206813209F02F
:104FD00049C08091060690910706029708F042C0EA
:104FE0008091E800877F8093E8008091E80082FF4D
:104FF00035C09091F3008091F200029729F48091DE
:10500000F1008B7F813021F48091F1008093A60420
:105010008091E8008B778093E8000C94E82A8091D7
:105020000206813AF9F48091E800877F8093E800D6
:105030008091060690910706892B61F468E08EE95D
:1050400094E070E00E94F7298091E8008B778093CC
:10505000E800089560E090E080E0F3CF80910106E1
:105060008111C3CF089580910206813AD9F78091CA
:10507000060690910706892BA9F78091E800877FA3
:105080008093E8008091E80080FFFCCF80912B01A5
:105090008093F1008091E8008E77BDCF8091020669
:1050A000813201F78091060690910706892BD1F68F
:1050B0008091E800877F8093E8000E94E82A809131
:1050C000040680932B010C94761E80910206813297
:1050D00049F68091E800877F8093E8000E94E82AE3
:1050E000809105068093A704089580910206813A75
:1050F00009F0B8CF8091E800877F8093E800809125
:10510000E80080FFFCCF8091A704C2CF9FB7F8943E
:1051100010929D049FBF90910106943009F048C001
:105120002091E9002F703091EC00932F917030FDA9
:1051300090E8922B23E02093E9002091EB0020FFE0
:1051400034C02091EE0027FF30C020919B04222321
:1051500021F02091E80025FF28C010929B0426E052
:105160003091E80035FF14C08093F1008091E80091
:1051700085FD27C08091E80080FFFCCF8091E8008A
:105180008E778093E8009F709093E90080E0089507
:1051900030910106343049F43091EB0035FD05C003
:1051A000215041F481E080939B049F709093E9002B
:1051B0008FEF0895EFE9FFE03197F1F700C00000AD
:1051C000CFCF8FB7F89421E020939D048FBFDBCF22
:1051D00084B7877F84BF0FB6F894A895809160004C
:1051E000886180936000109260000FBE80E890E0BC
:1051F0000FB6F89480936100909361000FBE0E94F7
:10520000321A0E94382B0E94952B8091E200846014
:105210008093E20078940E941D2E0E94461A81E23B
:1052200091E00E947A1986E597E00E94D40480916B
:105230000106853051F482E597E00E94D404809104
:105240000106853039F00E9435260E94761A0E94A8
:10525000421AEDCF0E94EE258091FF05882379F355
:105260000E941D26882359F30E9492290E94761ECF
:10527000E6CF0C943B29292F33272330310521F128
:1052800068F42130310509F443C02230310509F4B6
:1052900044C090E080E030E020E026C021323105BB
:1052A00051F122323105A9F76330710590F7FB0106
:1052B000EE0FFF1FE853FE4F208131816B537E4F6D
:1052C000FB01808190E010C099278130910581F029
:1052D000009729F00297E9F6EBE7F7E002C0EFEA62
:1052E000F7E0849190E09F01FA01318320830895D3
:1052F000E7E9F7E0F6CF6330710558F6660F771FE0
:10530000FB01E253FE4F2081318189E090E0ECCF38
:1053100082E190E02EE038E0E7CF8BE590E023EBF0
:1053200037E0E2CF80E189BD82E189BD09B400FEAA
:10533000FDCF8091D8008F7D8093D8008091E000D0
:1053400082608093E0008091E00081FDFCCF0895B1
:10535000AF92BF92CF92DF92FF920F931F93CF93A2
:10536000DF936C01EB018A010E94072BF82E81115B
:1053700023C00115110539F0F80180819181C81B06
:10538000D90BC80ED91EB12CA12C2097A9F0809161
:10539000E80085FD22C08091E8008E778093E800C8
:1053A00001151105A1F0F80180819181A80EB91EA7
:1053B000B182A08285E0F82E8F2DDF91CF911F91D1
:1053C0000F91FF90DF90CF90BF90AF9008950E9413
:1053D000072B8823D1F2F82EEFCFF60181916F01D0
:1053E0008093F1002197FFEFAF1ABF0ACECFFC01E7
:1053F000809108069091090686179707A0F061151D
:10540000710529F49091E8009E779093E80090E070
:105410006115710551F4911108C08091E80082FF77
:1054200034C080E00895BC01F2CF8091010688234A
:10543000C1F18530C1F18091E80083FD30C08091D9
:10544000E80082FDEACF8091E80080FFE1CF809103
:10545000F3002091F200382F6115710519F0283002
:10546000310558F091E02830310509F090E02091A5
:10547000E8002E772093E800CBCF81918093F10054
:10548000615071092F5F3F4FE7CF8091010688235C
:1054900041F0853041F08091E80083FFBECF81E08C
:1054A000089582E0089583E00895FC018091080644
:1054B0009091090686179707A0F06115710529F4E8
:1054C0008091E8008E778093E80090E06115710587
:1054D00051F4911108C08091E80082FF35C080E04E
:1054E0000895BC01F2CF809101068823C9F185306F
:1054F000C9F18091E80083FD31C08091E80082FD10
:10550000EACF8091E80080FFE1CF8091F300209105
:10551000F200382F6115710519F02830310558F067
:1055200091E02830310509F090E08091E8008E7715
:105530008093E800CBCF84918093F1003196615045
:1055400071092F5F3F4FE6CF80910106882341F01C
:10555000853041F08091E80083FFBDCF81E0089560
:1055600082E0089583E00895982F973028F08F7097
:105570008093E90081E008959093E900242F762F2D
:1055800050E0981731F07091EC002091ED005091AF
:10559000F00021FD02C09F5FE8CF3091EB003E7F1D
:1055A0003093EB003091ED003D7F3093ED00309172
:1055B000EB0031603093EB007093EC002093ED0032
:1055C0005093F0002091EE0027FDE5CF80E0089594
:1055D0008091020687FF13C08091E80082FF06C019
:1055E0008091E8008B778093E80004C080910106E9
:1055F0008111F2CF0895809101068823D9F380911B
:10560000E80080FFF8CF8091E8008E77ECCF209102
:10561000E4003091E50095E6A9012091EC00822F8D
:10562000817020FF06C08091E80080FF06C080E006
:1056300008952091E80022FD1AC080910106882378
:1056400089F0853089F08091EB0085FD0FC02091B5
:10565000E4003091E50042175307F9F29150E1F66A
:1056600084E0089582E0089583E0089581E008953C
:105670000E94A62B0E94AE2BE0EEF0E080818160BC
:105680008083E8EDF0E080818F77808319BCA7EDFF
:10569000B0E08C918E7F8C9380818F7E808310927E
:1056A000000608950F931F93CF93DF930E94A62BBC
:1056B0000E94AE2BC8EDD0E088818F7788838881E7
:1056C0008068888388818F7D888319BC1092010649
:1056D0001092FD051092FF051092FE0500EE10E0FD
:1056E000F80180818B7F808388818160888342E09C
:1056F00060E080E00E94B42AE1EEF0E080818E7FDD
:105700008083E2EEF0E08081816080838081886028
:105710008083F80180818E7F808388818061888387
:10572000DF91CF911F910F910895E8EDF0E0808116
:105730008F7E8083E7EDF0E080818160808384E06C
:1057400082BF81E0809300060C94522BE8EDF0E0DC
:1057500080818E7F80831092E20008951092DA009B
:105760001092E10008951F920F920FB60F9211242C
:105770002F933F934F935F936F937F938F939F9359
:10578000AF93BF93EF93FF938091E10082FF0BC033
:105790008091E20082FF07C08091E1008B7F8093BF
:1057A000E1000E947F278091DA0080FF19C080917C
:1057B000D80080FF15C08091DA008E7F8093DA00D8
:1057C0008091D90080FF96C080E189BD82E189BDCA
:1057D00009B400FEFDCF81E0809301060E945A27A4
:1057E0008091E10080FF19C08091E20080FF15C028
:1057F0008091E2008E7F8093E2008091E2008061E0
:105800008093E2008091D80080628093D80019BC18
:1058100085E0809301060E9477278091E10084FF54
:105820002BC08091E20084FF27C080E189BD82E126
:1058300089BD89B5982F917080FFFBCF8091D800EA
:105840008F7D8093D8008091E1008F7E8093E1006E
:105850008091E2008F7E8093E2008091E20081607F
:105860008093E2008091FD05882309F449C084E01B
:10587000809301060E947B278091E10083FF29C06D
:105880008091E20083FF25C08091E100877F8093B3
:10589000E10082E0809301061092FD058091E10015
:1058A0008E7F8093E1008091E2008E7F8093E20002
:1058B0008091E20080618093E20042E060E080E05D
:1058C0000E94B42A8091F00088608093F0000E94CA
:1058D0007327FF91EF91BF91AF919F918F917F912E
:1058E0006F915F914F913F912F910F900FBE0F904D
:1058F0001F90189519BC109201060E946C2770CF5A
:105900008091E30087FD93E090930106B3CF1F924F
:105910000F920FB60F9211242F933F934F935F93E3
:105920006F937F938F939F93AF93BF93CF93DF93A7
:10593000EF93FF93D091E900DF708091EC00C82FC6
:10594000C17080FDC0E81092E9008091F000877F6F
:105950008093F00078940E94CB2C1092E900809103
:10596000F00088608093F000CD2BCF70C093E900E9
:10597000FF91EF91DF91CF91BF91AF919F918F9167
:105980007F916F915F914F913F912F910F900FBE3B
:105990000F901F9018951F93CF93DF93CDB7DEB76D
:1059A000AA970FB6F894DEBF0FBECDBF82E096E097
:1059B0002091F100FC012193CF01F6E08A309F078E
:1059C000B9F70E94CF278091E80083FF1EC1809124
:1059D0000206909103069A3008F017C1E92FF0E013
:1059E000ED53F04D0C949C2E803899F0823809F0DC
:1059F0000CC1809106068F70873008F006C1809335
:105A0000E9008091EB0085FB882780F91092E9007E
:105A100006C08091FE059091FF05911182609091E2
:105A2000E800977F9093E8008093F1001092F100D6
:105A30008091E8008E77E5C0882309F4D3C08230D6
:105A400009F0E3C0809104068111D6C0809106065A
:105A50008F702FEF280F263008F0D7C08093E90011
:105A60002091EB0020FFC8C0933031F48091EB000F
:105A700080628093EB00C0C09091EB0090619093A6
:105A8000EB0021E030E001C0220F8A95EAF7209375
:105A9000EA001092EA008091EB008860EACF811161
:105AA000B4C0109104061F778091E3008078812BA9
:105AB0008093E3008091E800877F8093E8000E9454
:105AC000E82A8091E80080FFFCCF8091E3008068A5
:105AD0008093E30082E0111183E08093010695C07A
